{
  "_format": "hh-sol-artifact-1",
  "contractName": "ERC1155Token",
  "sourceName": "contracts/ERC1155Token.sol",
  "abi": [
    {
      "inputs": [],
      "stateMutability": "nonpayable",
      "type": "constructor"
    },
    {
      "anonymous": false,
      "inputs": [
        {
          "indexed": true,
          "internalType": "address",
          "name": "account",
          "type": "address"
        },
        {
          "indexed": true,
          "internalType": "address",
          "name": "operator",
          "type": "address"
        },
        {
          "indexed": false,
          "internalType": "bool",
          "name": "approved",
          "type": "bool"
        }
      ],
      "name": "ApprovalForAll",
      "type": "event"
    },
    {
      "anonymous": false,
      "inputs": [
        {
          "indexed": true,
          "internalType": "address",
          "name": "operator",
          "type": "address"
        },
        {
          "indexed": true,
          "internalType": "address",
          "name": "from",
          "type": "address"
        },
        {
          "indexed": true,
          "internalType": "address",
          "name": "to",
          "type": "address"
        },
        {
          "indexed": false,
          "internalType": "uint256[]",
          "name": "ids",
          "type": "uint256[]"
        },
        {
          "indexed": false,
          "internalType": "uint256[]",
          "name": "values",
          "type": "uint256[]"
        }
      ],
      "name": "TransferBatch",
      "type": "event"
    },
    {
      "anonymous": false,
      "inputs": [
        {
          "indexed": true,
          "internalType": "address",
          "name": "operator",
          "type": "address"
        },
        {
          "indexed": true,
          "internalType": "address",
          "name": "from",
          "type": "address"
        },
        {
          "indexed": true,
          "internalType": "address",
          "name": "to",
          "type": "address"
        },
        {
          "indexed": false,
          "internalType": "uint256",
          "name": "id",
          "type": "uint256"
        },
        {
          "indexed": false,
          "internalType": "uint256",
          "name": "value",
          "type": "uint256"
        }
      ],
      "name": "TransferSingle",
      "type": "event"
    },
    {
      "anonymous": false,
      "inputs": [
        {
          "indexed": false,
          "internalType": "string",
          "name": "value",
          "type": "string"
        },
        {
          "indexed": true,
          "internalType": "uint256",
          "name": "id",
          "type": "uint256"
        }
      ],
      "name": "URI",
      "type": "event"
    },
    {
      "inputs": [],
      "name": "CURRENCY1",
      "outputs": [
        {
          "internalType": "uint256",
          "name": "",
          "type": "uint256"
        }
      ],
      "stateMutability": "view",
      "type": "function"
    },
    {
      "inputs": [],
      "name": "CURRENCY2",
      "outputs": [
        {
          "internalType": "uint256",
          "name": "",
          "type": "uint256"
        }
      ],
      "stateMutability": "view",
      "type": "function"
    },
    {
      "inputs": [
        {
          "internalType": "address",
          "name": "account",
          "type": "address"
        },
        {
          "internalType": "uint256",
          "name": "id",
          "type": "uint256"
        }
      ],
      "name": "balanceOf",
      "outputs": [
        {
          "internalType": "uint256",
          "name": "",
          "type": "uint256"
        }
      ],
      "stateMutability": "view",
      "type": "function"
    },
    {
      "inputs": [
        {
          "internalType": "address[]",
          "name": "accounts",
          "type": "address[]"
        },
        {
          "internalType": "uint256[]",
          "name": "ids",
          "type": "uint256[]"
        }
      ],
      "name": "balanceOfBatch",
      "outputs": [
        {
          "internalType": "uint256[]",
          "name": "",
          "type": "uint256[]"
        }
      ],
      "stateMutability": "view",
      "type": "function"
    },
    {
      "inputs": [
        {
          "internalType": "address",
          "name": "account",
          "type": "address"
        },
        {
          "internalType": "address",
          "name": "operator",
          "type": "address"
        }
      ],
      "name": "isApprovedForAll",
      "outputs": [
        {
          "internalType": "bool",
          "name": "",
          "type": "bool"
        }
      ],
      "stateMutability": "view",
      "type": "function"
    },
    {
      "inputs": [
        {
          "internalType": "uint256",
          "name": "amount",
          "type": "uint256"
        }
      ],
      "name": "mint",
      "outputs": [],
      "stateMutability": "nonpayable",
      "type": "function"
    },
    {
      "inputs": [
        {
          "internalType": "address",
          "name": "from",
          "type": "address"
        },
        {
          "internalType": "address",
          "name": "to",
          "type": "address"
        },
        {
          "internalType": "uint256[]",
          "name": "ids",
          "type": "uint256[]"
        },
        {
          "internalType": "uint256[]",
          "name": "amounts",
          "type": "uint256[]"
        },
        {
          "internalType": "bytes",
          "name": "data",
          "type": "bytes"
        }
      ],
      "name": "safeBatchTransferFrom",
      "outputs": [],
      "stateMutability": "nonpayable",
      "type": "function"
    },
    {
      "inputs": [
        {
          "internalType": "address",
          "name": "from",
          "type": "address"
        },
        {
          "internalType": "address",
          "name": "to",
          "type": "address"
        },
        {
          "internalType": "uint256",
          "name": "id",
          "type": "uint256"
        },
        {
          "internalType": "uint256",
          "name": "amount",
          "type": "uint256"
        },
        {
          "internalType": "bytes",
          "name": "data",
          "type": "bytes"
        }
      ],
      "name": "safeTransferFrom",
      "outputs": [],
      "stateMutability": "nonpayable",
      "type": "function"
    },
    {
      "inputs": [
        {
          "internalType": "address",
          "name": "operator",
          "type": "address"
        },
        {
          "internalType": "bool",
          "name": "approved",
          "type": "bool"
        }
      ],
      "name": "setApprovalForAll",
      "outputs": [],
      "stateMutability": "nonpayable",
      "type": "function"
    },
    {
      "inputs": [
        {
          "internalType": "bytes4",
          "name": "interfaceId",
          "type": "bytes4"
        }
      ],
      "name": "supportsInterface",
      "outputs": [
        {
          "internalType": "bool",
          "name": "",
          "type": "bool"
        }
      ],
      "stateMutability": "view",
      "type": "function"
    },
    {
      "inputs": [
        {
          "internalType": "uint256",
          "name": "",
          "type": "uint256"
        }
      ],
      "name": "uri",
      "outputs": [
        {
          "internalType": "string",
          "name": "",
          "type": "string"
        }
      ],
      "stateMutability": "view",
      "type": "function"
    }
  ],
  "bytecode": "0x60806040523480156200001157600080fd5b506040518060200160405280600081525062000033816200003a60201b60201c565b506200016b565b80600290805190602001906200005292919062000056565b5050565b828054620000649062000106565b90600052602060002090601f016020900481019282620000885760008555620000d4565b82601f10620000a357805160ff1916838001178555620000d4565b82800160010185558215620000d4579182015b82811115620000d3578251825591602001919060010190620000b6565b5b509050620000e39190620000e7565b5090565b5b8082111562000102576000816000905550600101620000e8565b5090565b600060028204905060018216806200011f57607f821691505b602082108114156200013657620001356200013c565b5b50919050565b7f4e487b7100000000000000000000000000000000000000000000000000000000600052602260045260246000fd5b612990806200017b6000396000f3fe608060405234801561001057600080fd5b50600436106100a85760003560e01c80634e1273f4116100715780634e1273f4146101775780639469c87c146101a7578063a0712d68146101c5578063a22cb465146101e1578063e985e9c5146101fd578063f242432a1461022d576100a8565b8062fdd58e146100ad57806301ffc9a7146100dd5780630e89341c1461010d5780632eb2c2d61461013d57806333631df414610159575b600080fd5b6100c760048036038101906100c29190611a9b565b610249565b6040516100d4919061211b565b60405180910390f35b6100f760048036038101906100f29190611b43565b610312565b6040516101049190611f7e565b60405180910390f35b61012760048036038101906101229190611b95565b6103f4565b6040516101349190611f99565b60405180910390f35b61015760048036038101906101529190611911565b610488565b005b610161610529565b60405161016e919061211b565b60405180910390f35b610191600480360381019061018c9190611ad7565b61052e565b60405161019e9190611f25565b60405180910390f35b6101af6106df565b6040516101bc919061211b565b60405180910390f35b6101df60048036038101906101da9190611b95565b6106e4565b005b6101fb60048036038101906101f69190611a5f565b61072c565b005b610217600480360381019061021291906118d5565b610742565b6040516102249190611f7e565b60405180910390f35b610247600480360381019061024291906119d0565b6107d6565b005b60008073ffffffffffffffffffffffffffffffffffffffff168373ffffffffffffffffffffffffffffffffffffffff1614156102ba576040517f08c379a00000000000000000000000000000000000000000000000000000000081526004016102b190611ffb565b60405180910390fd5b60008083815260200190815260200160002060008473ffffffffffffffffffffffffffffffffffffffff1673ffffffffffffffffffffffffffffffffffffffff16815260200190815260200160002054905092915050565b60007fd9b67a26000000000000000000000000000000000000000000000000000000007bffffffffffffffffffffffffffffffffffffffffffffffffffffffff1916827bffffffffffffffffffffffffffffffffffffffffffffffffffffffff191614806103dd57507f0e89341c000000000000000000000000000000000000000000000000000000007bffffffffffffffffffffffffffffffffffffffffffffffffffffffff1916827bffffffffffffffffffffffffffffffffffffffffffffffffffffffff1916145b806103ed57506103ec82610877565b5b9050919050565b6060600280546104039061238a565b80601f016020809104026020016040519081016040528092919081815260200182805461042f9061238a565b801561047c5780601f106104515761010080835404028352916020019161047c565b820191906000526020600020905b81548152906001019060200180831161045f57829003601f168201915b50505050509050919050565b6104906108e1565b73ffffffffffffffffffffffffffffffffffffffff168573ffffffffffffffffffffffffffffffffffffffff1614806104d657506104d5856104d06108e1565b610742565b5b610515576040517f08c379a000000000000000000000000000000000000000000000000000000000815260040161050c9061205b565b60405180910390fd5b61052285858585856108e9565b5050505050565b600081565b60608151835114610574576040517f08c379a000000000000000000000000000000000000000000000000000000000815260040161056b906120bb565b60405180910390fd5b6000835167ffffffffffffffff8111156105b7577f4e487b7100000000000000000000000000000000000000000000000000000000600052604160045260246000fd5b6040519080825280602002602001820160405280156105e55781602001602082028036833780820191505090505b50905060005b84518110156106d45761067e858281518110610630577f4e487b7100000000000000000000000000000000000000000000000000000000600052603260045260246000fd5b6020026020010151858381518110610671577f4e487b7100000000000000000000000000000000000000000000000000000000600052603260045260246000fd5b6020026020010151610249565b8282815181106106b7577f4e487b7100000000000000000000000000000000000000000000000000000000600052603260045260246000fd5b602002602001018181525050806106cd906123ed565b90506105eb565b508091505092915050565b600181565b600081116106f157600080fd5b61070d3360008360405180602001604052806000815250610c57565b6107293360018360405180602001604052806000815250610c57565b50565b61073e6107376108e1565b8383610e08565b5050565b6000600160008473ffffffffffffffffffffffffffffffffffffffff1673ffffffffffffffffffffffffffffffffffffffff16815260200190815260200160002060008373ffffffffffffffffffffffffffffffffffffffff1673ffffffffffffffffffffffffffffffffffffffff16815260200190815260200160002060009054906101000a900460ff16905092915050565b6107de6108e1565b73ffffffffffffffffffffffffffffffffffffffff168573ffffffffffffffffffffffffffffffffffffffff16148061082457506108238561081e6108e1565b610742565b5b610863576040517f08c379a000000000000000000000000000000000000000000000000000000000815260040161085a9061201b565b60405180910390fd5b6108708585858585610f75565b5050505050565b60007f01ffc9a7000000000000000000000000000000000000000000000000000000007bffffffffffffffffffffffffffffffffffffffffffffffffffffffff1916827bffffffffffffffffffffffffffffffffffffffffffffffffffffffff1916149050919050565b600033905090565b815183511461092d576040517f08c379a0000000000000000000000000000000000000000000000000000000008152600401610924906120db565b60405180910390fd5b600073ffffffffffffffffffffffffffffffffffffffff168473ffffffffffffffffffffffffffffffffffffffff16141561099d576040517f08c379a00000000000000000000000000000000000000000000000000000000081526004016109949061203b565b60405180910390fd5b60006109a76108e1565b90506109b7818787878787611211565b60005b8451811015610bb45760008582815181106109fe577f4e487b7100000000000000000000000000000000000000000000000000000000600052603260045260246000fd5b602002602001015190506000858381518110610a43577f4e487b7100000000000000000000000000000000000000000000000000000000600052603260045260246000fd5b60200260200101519050600080600084815260200190815260200160002060008b73ffffffffffffffffffffffffffffffffffffffff1673ffffffffffffffffffffffffffffffffffffffff16815260200190815260200160002054905081811015610ae4576040517f08c379a0000000000000000000000000000000000000000000000000000000008152600401610adb9061207b565b60405180910390fd5b81810360008085815260200190815260200160002060008c73ffffffffffffffffffffffffffffffffffffffff1673ffffffffffffffffffffffffffffffffffffffff168152602001908152602001600020819055508160008085815260200190815260200160002060008b73ffffffffffffffffffffffffffffffffffffffff1673ffffffffffffffffffffffffffffffffffffffff1681526020019081526020016000206000828254610b99919061227e565b9250508190555050505080610bad906123ed565b90506109ba565b508473ffffffffffffffffffffffffffffffffffffffff168673ffffffffffffffffffffffffffffffffffffffff168273ffffffffffffffffffffffffffffffffffffffff167f4a39dc06d4c0dbc64b70af90fd698a233a518aa5d07e595d983b8c0526c8f7fb8787604051610c2b929190611f47565b60405180910390a4610c41818787878787611219565b610c4f818787878787611221565b505050505050565b600073ffffffffffffffffffffffffffffffffffffffff168473ffffffffffffffffffffffffffffffffffffffff161415610cc7576040517f08c379a0000000000000000000000000000000000000000000000000000000008152600401610cbe906120fb565b60405180910390fd5b6000610cd16108e1565b90506000610cde85611408565b90506000610ceb85611408565b9050610cfc83600089858589611211565b8460008088815260200190815260200160002060008973ffffffffffffffffffffffffffffffffffffffff1673ffffffffffffffffffffffffffffffffffffffff1681526020019081526020016000206000828254610d5b919061227e565b925050819055508673ffffffffffffffffffffffffffffffffffffffff16600073ffffffffffffffffffffffffffffffffffffffff168473ffffffffffffffffffffffffffffffffffffffff167fc3d58168c5ae7397731d063d5bbf3d657854427343f4c083240f7aacaa2d0f628989604051610dd9929190612136565b60405180910390a4610df083600089858589611219565b610dff836000898989896114ce565b50505050505050565b8173ffffffffffffffffffffffffffffffffffffffff168373ffffffffffffffffffffffffffffffffffffffff161415610e77576040517f08c379a0000000000000000000000000000000000000000000000000000000008152600401610e6e9061209b565b60405180910390fd5b80600160008573ffffffffffffffffffffffffffffffffffffffff1673ffffffffffffffffffffffffffffffffffffffff16815260200190815260200160002060008473ffffffffffffffffffffffffffffffffffffffff1673ffffffffffffffffffffffffffffffffffffffff16815260200190815260200160002060006101000a81548160ff0219169083151502179055508173ffffffffffffffffffffffffffffffffffffffff168373ffffffffffffffffffffffffffffffffffffffff167f17307eab39ab6107e8899845ad3d59bd9653f200f220920489ca2b5937696c3183604051610f689190611f7e565b60405180910390a3505050565b600073ffffffffffffffffffffffffffffffffffffffff168473ffffffffffffffffffffffffffffffffffffffff161415610fe5576040517f08c379a0000000000000000000000000000000000000000000000000000000008152600401610fdc9061203b565b60405180910390fd5b6000610fef6108e1565b90506000610ffc85611408565b9050600061100985611408565b9050611019838989858589611211565b600080600088815260200190815260200160002060008a73ffffffffffffffffffffffffffffffffffffffff1673ffffffffffffffffffffffffffffffffffffffff168152602001908152602001600020549050858110156110b0576040517f08c379a00000000000000000000000000000000000000000000000000000000081526004016110a79061207b565b60405180910390fd5b85810360008089815260200190815260200160002060008b73ffffffffffffffffffffffffffffffffffffffff1673ffffffffffffffffffffffffffffffffffffffff168152602001908152602001600020819055508560008089815260200190815260200160002060008a73ffffffffffffffffffffffffffffffffffffffff1673ffffffffffffffffffffffffffffffffffffffff1681526020019081526020016000206000828254611165919061227e565b925050819055508773ffffffffffffffffffffffffffffffffffffffff168973ffffffffffffffffffffffffffffffffffffffff168573ffffffffffffffffffffffffffffffffffffffff167fc3d58168c5ae7397731d063d5bbf3d657854427343f4c083240f7aacaa2d0f628a8a6040516111e2929190612136565b60405180910390a46111f8848a8a86868a611219565b611206848a8a8a8a8a6114ce565b505050505050505050565b505050505050565b505050505050565b6112408473ffffffffffffffffffffffffffffffffffffffff166116b5565b15611400578373ffffffffffffffffffffffffffffffffffffffff1663bc197c8187878686866040518663ffffffff1660e01b8152600401611286959493929190611e63565b602060405180830381600087803b1580156112a057600080fd5b505af19250505080156112d157506040513d601f19601f820116820180604052508101906112ce9190611b6c565b60015b611377576112dd6124c3565b806308c379a0141561133a57506112f2612868565b806112fd575061133c565b806040517f08c379a00000000000000000000000000000000000000000000000000000000081526004016113319190611f99565b60405180910390fd5b505b6040517f08c379a000000000000000000000000000000000000000000000000000000000815260040161136e90611fbb565b60405180910390fd5b63bc197c8160e01b7bffffffffffffffffffffffffffffffffffffffffffffffffffffffff1916817bffffffffffffffffffffffffffffffffffffffffffffffffffffffff1916146113fe576040517f08c379a00000000000000000000000000000000000000000000000000000000081526004016113f590611fdb565b60405180910390fd5b505b505050505050565b60606000600167ffffffffffffffff81111561144d577f4e487b7100000000000000000000000000000000000000000000000000000000600052604160045260246000fd5b60405190808252806020026020018201604052801561147b5781602001602082028036833780820191505090505b50905082816000815181106114b9577f4e487b7100000000000000000000000000000000000000000000000000000000600052603260045260246000fd5b60200260200101818152505080915050919050565b6114ed8473ffffffffffffffffffffffffffffffffffffffff166116b5565b156116ad578373ffffffffffffffffffffffffffffffffffffffff1663f23a6e6187878686866040518663ffffffff1660e01b8152600401611533959493929190611ecb565b602060405180830381600087803b15801561154d57600080fd5b505af192505050801561157e57506040513d601f19601f8201168201806040525081019061157b9190611b6c565b60015b6116245761158a6124c3565b806308c379a014156115e7575061159f612868565b806115aa57506115e9565b806040517f08c379a00000000000000000000000000000000000000000000000000000000081526004016115de9190611f99565b60405180910390fd5b505b6040517f08c379a000000000000000000000000000000000000000000000000000000000815260040161161b90611fbb565b60405180910390fd5b63f23a6e6160e01b7bffffffffffffffffffffffffffffffffffffffffffffffffffffffff1916817bffffffffffffffffffffffffffffffffffffffffffffffffffffffff1916146116ab576040517f08c379a00000000000000000000000000000000000000000000000000000000081526004016116a290611fdb565b60405180910390fd5b505b505050505050565b6000808273ffffffffffffffffffffffffffffffffffffffff163b119050919050565b60006116eb6116e684612184565b61215f565b9050808382526020820190508285602086028201111561170a57600080fd5b60005b8581101561173a578161172088826117ee565b84526020840193506020830192505060018101905061170d565b5050509392505050565b6000611757611752846121b0565b61215f565b9050808382526020820190508285602086028201111561177657600080fd5b60005b858110156117a6578161178c88826118c0565b845260208401935060208301925050600181019050611779565b5050509392505050565b60006117c36117be846121dc565b61215f565b9050828152602081018484840111156117db57600080fd5b6117e6848285612348565b509392505050565b6000813590506117fd816128fe565b92915050565b600082601f83011261181457600080fd5b81356118248482602086016116d8565b91505092915050565b600082601f83011261183e57600080fd5b813561184e848260208601611744565b91505092915050565b60008135905061186681612915565b92915050565b60008135905061187b8161292c565b92915050565b6000815190506118908161292c565b92915050565b600082601f8301126118a757600080fd5b81356118b78482602086016117b0565b91505092915050565b6000813590506118cf81612943565b92915050565b600080604083850312156118e857600080fd5b60006118f6858286016117ee565b9250506020611907858286016117ee565b9150509250929050565b600080600080600060a0868803121561192957600080fd5b6000611937888289016117ee565b9550506020611948888289016117ee565b945050604086013567ffffffffffffffff81111561196557600080fd5b6119718882890161182d565b935050606086013567ffffffffffffffff81111561198e57600080fd5b61199a8882890161182d565b925050608086013567ffffffffffffffff8111156119b757600080fd5b6119c388828901611896565b9150509295509295909350565b600080600080600060a086880312156119e857600080fd5b60006119f6888289016117ee565b9550506020611a07888289016117ee565b9450506040611a18888289016118c0565b9350506060611a29888289016118c0565b925050608086013567ffffffffffffffff811115611a4657600080fd5b611a5288828901611896565b9150509295509295909350565b60008060408385031215611a7257600080fd5b6000611a80858286016117ee565b9250506020611a9185828601611857565b9150509250929050565b60008060408385031215611aae57600080fd5b6000611abc858286016117ee565b9250506020611acd858286016118c0565b9150509250929050565b60008060408385031215611aea57600080fd5b600083013567ffffffffffffffff811115611b0457600080fd5b611b1085828601611803565b925050602083013567ffffffffffffffff811115611b2d57600080fd5b611b398582860161182d565b9150509250929050565b600060208284031215611b5557600080fd5b6000611b638482850161186c565b91505092915050565b600060208284031215611b7e57600080fd5b6000611b8c84828501611881565b91505092915050565b600060208284031215611ba757600080fd5b6000611bb5848285016118c0565b91505092915050565b6000611bca8383611e45565b60208301905092915050565b611bdf816122d4565b82525050565b6000611bf08261221d565b611bfa818561224b565b9350611c058361220d565b8060005b83811015611c36578151611c1d8882611bbe565b9750611c288361223e565b925050600181019050611c09565b5085935050505092915050565b611c4c816122e6565b82525050565b6000611c5d82612228565b611c67818561225c565b9350611c77818560208601612357565b611c80816124e5565b840191505092915050565b6000611c9682612233565b611ca0818561226d565b9350611cb0818560208601612357565b611cb9816124e5565b840191505092915050565b6000611cd160348361226d565b9150611cdc82612503565b604082019050919050565b6000611cf460288361226d565b9150611cff82612552565b604082019050919050565b6000611d17602b8361226d565b9150611d22826125a1565b604082019050919050565b6000611d3a60298361226d565b9150611d45826125f0565b604082019050919050565b6000611d5d60258361226d565b9150611d688261263f565b604082019050919050565b6000611d8060328361226d565b9150611d8b8261268e565b604082019050919050565b6000611da3602a8361226d565b9150611dae826126dd565b604082019050919050565b6000611dc660298361226d565b9150611dd18261272c565b604082019050919050565b6000611de960298361226d565b9150611df48261277b565b604082019050919050565b6000611e0c60288361226d565b9150611e17826127ca565b604082019050919050565b6000611e2f60218361226d565b9150611e3a82612819565b604082019050919050565b611e4e8161233e565b82525050565b611e5d8161233e565b82525050565b600060a082019050611e786000830188611bd6565b611e856020830187611bd6565b8181036040830152611e978186611be5565b90508181036060830152611eab8185611be5565b90508181036080830152611ebf8184611c52565b90509695505050505050565b600060a082019050611ee06000830188611bd6565b611eed6020830187611bd6565b611efa6040830186611e54565b611f076060830185611e54565b8181036080830152611f198184611c52565b90509695505050505050565b60006020820190508181036000830152611f3f8184611be5565b905092915050565b60006040820190508181036000830152611f618185611be5565b90508181036020830152611f758184611be5565b90509392505050565b6000602082019050611f936000830184611c43565b92915050565b60006020820190508181036000830152611fb38184611c8b565b905092915050565b60006020820190508181036000830152611fd481611cc4565b9050919050565b60006020820190508181036000830152611ff481611ce7565b9050919050565b6000602082019050818103600083015261201481611d0a565b9050919050565b6000602082019050818103600083015261203481611d2d565b9050919050565b6000602082019050818103600083015261205481611d50565b9050919050565b6000602082019050818103600083015261207481611d73565b9050919050565b6000602082019050818103600083015261209481611d96565b9050919050565b600060208201905081810360008301526120b481611db9565b9050919050565b600060208201905081810360008301526120d481611ddc565b9050919050565b600060208201905081810360008301526120f481611dff565b9050919050565b6000602082019050818103600083015261211481611e22565b9050919050565b60006020820190506121306000830184611e54565b92915050565b600060408201905061214b6000830185611e54565b6121586020830184611e54565b9392505050565b600061216961217a565b905061217582826123bc565b919050565b6000604051905090565b600067ffffffffffffffff82111561219f5761219e612494565b5b602082029050602081019050919050565b600067ffffffffffffffff8211156121cb576121ca612494565b5b602082029050602081019050919050565b600067ffffffffffffffff8211156121f7576121f6612494565b5b612200826124e5565b9050602081019050919050565b6000819050602082019050919050565b600081519050919050565b600081519050919050565b600081519050919050565b6000602082019050919050565b600082825260208201905092915050565b600082825260208201905092915050565b600082825260208201905092915050565b60006122898261233e565b91506122948361233e565b9250827fffffffffffffffffffffffffffffffffffffffffffffffffffffffffffffffff038211156122c9576122c8612436565b5b828201905092915050565b60006122df8261231e565b9050919050565b60008115159050919050565b60007fffffffff0000000000000000000000000000000000000000000000000000000082169050919050565b600073ffffffffffffffffffffffffffffffffffffffff82169050919050565b6000819050919050565b82818337600083830152505050565b60005b8381101561237557808201518184015260208101905061235a565b83811115612384576000848401525b50505050565b600060028204905060018216806123a257607f821691505b602082108114156123b6576123b5612465565b5b50919050565b6123c5826124e5565b810181811067ffffffffffffffff821117156123e4576123e3612494565b5b80604052505050565b60006123f88261233e565b91507fffffffffffffffffffffffffffffffffffffffffffffffffffffffffffffffff82141561242b5761242a612436565b5b600182019050919050565b7f4e487b7100000000000000000000000000000000000000000000000000000000600052601160045260246000fd5b7f4e487b7100000000000000000000000000000000000000000000000000000000600052602260045260246000fd5b7f4e487b7100000000000000000000000000000000000000000000000000000000600052604160045260246000fd5b600060033d11156124e25760046000803e6124df6000516124f6565b90505b90565b6000601f19601f8301169050919050565b60008160e01c9050919050565b7f455243313135353a207472616e7366657220746f206e6f6e204552433131353560008201527f526563656976657220696d706c656d656e746572000000000000000000000000602082015250565b7f455243313135353a204552433131353552656365697665722072656a6563746560008201527f6420746f6b656e73000000000000000000000000000000000000000000000000602082015250565b7f455243313135353a2062616c616e636520717565727920666f7220746865207a60008201527f65726f2061646472657373000000000000000000000000000000000000000000602082015250565b7f455243313135353a2063616c6c6572206973206e6f74206f776e6572206e6f7260008201527f20617070726f7665640000000000000000000000000000000000000000000000602082015250565b7f455243313135353a207472616e7366657220746f20746865207a65726f20616460008201527f6472657373000000000000000000000000000000000000000000000000000000602082015250565b7f455243313135353a207472616e736665722063616c6c6572206973206e6f742060008201527f6f776e6572206e6f7220617070726f7665640000000000000000000000000000602082015250565b7f455243313135353a20696e73756666696369656e742062616c616e636520666f60008201527f72207472616e7366657200000000000000000000000000000000000000000000602082015250565b7f455243313135353a2073657474696e6720617070726f76616c2073746174757360008201527f20666f722073656c660000000000000000000000000000000000000000000000602082015250565b7f455243313135353a206163636f756e747320616e6420696473206c656e67746860008201527f206d69736d617463680000000000000000000000000000000000000000000000602082015250565b7f455243313135353a2069647320616e6420616d6f756e7473206c656e6774682060008201527f6d69736d61746368000000000000000000000000000000000000000000000000602082015250565b7f455243313135353a206d696e7420746f20746865207a65726f2061646472657360008201527f7300000000000000000000000000000000000000000000000000000000000000602082015250565b600060443d1015612878576128fb565b61288061217a565b60043d036004823e80513d602482011167ffffffffffffffff821117156128a85750506128fb565b808201805167ffffffffffffffff8111156128c657505050506128fb565b80602083010160043d0385018111156128e35750505050506128fb565b6128f2826020018501866123bc565b82955050505050505b90565b612907816122d4565b811461291257600080fd5b50565b61291e816122e6565b811461292957600080fd5b50565b612935816122f2565b811461294057600080fd5b50565b61294c8161233e565b811461295757600080fd5b5056fea2646970667358221220ab37b6c8df5bbc4cc954ea1d94ed6bdd090eaa7a584e3ea94717e6508e9e9c5064736f6c63430008040033",
  "linkReferences": {},
  "deployedLinkReferences": {}
}