{
  "_format": "hh-sol-artifact-1",
  "contractName": "ERC721Token",
  "sourceName": "contracts/ERC721Token.sol",
  "abi": [
    {
      "inputs": [],
      "stateMutability": "nonpayable",
      "type": "constructor"
    },
    {
      "anonymous": false,
      "inputs": [
        {
          "indexed": true,
          "internalType": "address",
          "name": "owner",
          "type": "address"
        },
        {
          "indexed": true,
          "internalType": "address",
          "name": "approved",
          "type": "address"
        },
        {
          "indexed": true,
          "internalType": "uint256",
          "name": "tokenId",
          "type": "uint256"
        }
      ],
      "name": "Approval",
      "type": "event"
    },
    {
      "anonymous": false,
      "inputs": [
        {
          "indexed": true,
          "internalType": "address",
          "name": "owner",
          "type": "address"
        },
        {
          "indexed": true,
          "internalType": "address",
          "name": "operator",
          "type": "address"
        },
        {
          "indexed": false,
          "internalType": "bool",
          "name": "approved",
          "type": "bool"
        }
      ],
      "name": "ApprovalForAll",
      "type": "event"
    },
    {
      "anonymous": false,
      "inputs": [
        {
          "indexed": true,
          "internalType": "address",
          "name": "previousOwner",
          "type": "address"
        },
        {
          "indexed": true,
          "internalType": "address",
          "name": "newOwner",
          "type": "address"
        }
      ],
      "name": "OwnershipTransferred",
      "type": "event"
    },
    {
      "anonymous": false,
      "inputs": [
        {
          "indexed": true,
          "internalType": "address",
          "name": "from",
          "type": "address"
        },
        {
          "indexed": true,
          "internalType": "address",
          "name": "to",
          "type": "address"
        },
        {
          "indexed": true,
          "internalType": "uint256",
          "name": "tokenId",
          "type": "uint256"
        }
      ],
      "name": "Transfer",
      "type": "event"
    },
    {
      "inputs": [
        {
          "internalType": "address",
          "name": "to",
          "type": "address"
        },
        {
          "internalType": "uint256",
          "name": "tokenId",
          "type": "uint256"
        }
      ],
      "name": "approve",
      "outputs": [],
      "stateMutability": "nonpayable",
      "type": "function"
    },
    {
      "inputs": [
        {
          "internalType": "address",
          "name": "owner",
          "type": "address"
        }
      ],
      "name": "balanceOf",
      "outputs": [
        {
          "internalType": "uint256",
          "name": "",
          "type": "uint256"
        }
      ],
      "stateMutability": "view",
      "type": "function"
    },
    {
      "inputs": [
        {
          "internalType": "uint256",
          "name": "tokenId",
          "type": "uint256"
        }
      ],
      "name": "getApproved",
      "outputs": [
        {
          "internalType": "address",
          "name": "",
          "type": "address"
        }
      ],
      "stateMutability": "view",
      "type": "function"
    },
    {
      "inputs": [],
      "name": "id",
      "outputs": [
        {
          "internalType": "uint256",
          "name": "",
          "type": "uint256"
        }
      ],
      "stateMutability": "view",
      "type": "function"
    },
    {
      "inputs": [
        {
          "internalType": "address",
          "name": "owner",
          "type": "address"
        },
        {
          "internalType": "address",
          "name": "operator",
          "type": "address"
        }
      ],
      "name": "isApprovedForAll",
      "outputs": [
        {
          "internalType": "bool",
          "name": "",
          "type": "bool"
        }
      ],
      "stateMutability": "view",
      "type": "function"
    },
    {
      "inputs": [],
      "name": "mint",
      "outputs": [
        {
          "internalType": "uint256",
          "name": "",
          "type": "uint256"
        }
      ],
      "stateMutability": "nonpayable",
      "type": "function"
    },
    {
      "inputs": [],
      "name": "name",
      "outputs": [
        {
          "internalType": "string",
          "name": "",
          "type": "string"
        }
      ],
      "stateMutability": "view",
      "type": "function"
    },
    {
      "inputs": [],
      "name": "owner",
      "outputs": [
        {
          "internalType": "address",
          "name": "",
          "type": "address"
        }
      ],
      "stateMutability": "view",
      "type": "function"
    },
    {
      "inputs": [
        {
          "internalType": "uint256",
          "name": "tokenId",
          "type": "uint256"
        }
      ],
      "name": "ownerOf",
      "outputs": [
        {
          "internalType": "address",
          "name": "",
          "type": "address"
        }
      ],
      "stateMutability": "view",
      "type": "function"
    },
    {
      "inputs": [],
      "name": "renounceOwnership",
      "outputs": [],
      "stateMutability": "nonpayable",
      "type": "function"
    },
    {
      "inputs": [
        {
          "internalType": "address",
          "name": "from",
          "type": "address"
        },
        {
          "internalType": "address",
          "name": "to",
          "type": "address"
        },
        {
          "internalType": "uint256",
          "name": "tokenId",
          "type": "uint256"
        }
      ],
      "name": "safeTransferFrom",
      "outputs": [],
      "stateMutability": "nonpayable",
      "type": "function"
    },
    {
      "inputs": [
        {
          "internalType": "address",
          "name": "from",
          "type": "address"
        },
        {
          "internalType": "address",
          "name": "to",
          "type": "address"
        },
        {
          "internalType": "uint256",
          "name": "tokenId",
          "type": "uint256"
        },
        {
          "internalType": "bytes",
          "name": "_data",
          "type": "bytes"
        }
      ],
      "name": "safeTransferFrom",
      "outputs": [],
      "stateMutability": "nonpayable",
      "type": "function"
    },
    {
      "inputs": [
        {
          "internalType": "address",
          "name": "operator",
          "type": "address"
        },
        {
          "internalType": "bool",
          "name": "approved",
          "type": "bool"
        }
      ],
      "name": "setApprovalForAll",
      "outputs": [],
      "stateMutability": "nonpayable",
      "type": "function"
    },
    {
      "inputs": [
        {
          "internalType": "bytes4",
          "name": "interfaceId",
          "type": "bytes4"
        }
      ],
      "name": "supportsInterface",
      "outputs": [
        {
          "internalType": "bool",
          "name": "",
          "type": "bool"
        }
      ],
      "stateMutability": "view",
      "type": "function"
    },
    {
      "inputs": [],
      "name": "symbol",
      "outputs": [
        {
          "internalType": "string",
          "name": "",
          "type": "string"
        }
      ],
      "stateMutability": "view",
      "type": "function"
    },
    {
      "inputs": [
        {
          "internalType": "uint256",
          "name": "tokenId",
          "type": "uint256"
        }
      ],
      "name": "tokenURI",
      "outputs": [
        {
          "internalType": "string",
          "name": "",
          "type": "string"
        }
      ],
      "stateMutability": "view",
      "type": "function"
    },
    {
      "inputs": [
        {
          "internalType": "address",
          "name": "from",
          "type": "address"
        },
        {
          "internalType": "address",
          "name": "to",
          "type": "address"
        },
        {
          "internalType": "uint256",
          "name": "tokenId",
          "type": "uint256"
        }
      ],
      "name": "transferFrom",
      "outputs": [],
      "stateMutability": "nonpayable",
      "type": "function"
    },
    {
      "inputs": [
        {
          "internalType": "address",
          "name": "newOwner",
          "type": "address"
        }
      ],
      "name": "transferOwnership",
      "outputs": [],
      "stateMutability": "nonpayable",
      "type": "function"
    }
  ],
  "bytecode": "0x60806040523480156200001157600080fd5b506040518060400160405280600b81526020017f455243373231546f6b656e0000000000000000000000000000000000000000008152506040518060400160405280600381526020017f3732310000000000000000000000000000000000000000000000000000000000815250816000908051906020019062000096929190620001a6565b508060019080519060200190620000af929190620001a6565b505050620000d2620000c6620000d860201b60201c565b620000e060201b60201c565b620002bb565b600033905090565b6000600660009054906101000a900473ffffffffffffffffffffffffffffffffffffffff16905081600660006101000a81548173ffffffffffffffffffffffffffffffffffffffff021916908373ffffffffffffffffffffffffffffffffffffffff1602179055508173ffffffffffffffffffffffffffffffffffffffff168173ffffffffffffffffffffffffffffffffffffffff167f8be0079c531659141344cd1fd0a4f28419497f9722a3daafe3b4186f6b6457e060405160405180910390a35050565b828054620001b49062000256565b90600052602060002090601f016020900481019282620001d8576000855562000224565b82601f10620001f357805160ff191683800117855562000224565b8280016001018555821562000224579182015b828111156200022357825182559160200191906001019062000206565b5b50905062000233919062000237565b5090565b5b808211156200025257600081600090555060010162000238565b5090565b600060028204905060018216806200026f57607f821691505b602082108114156200028657620002856200028c565b5b50919050565b7f4e487b7100000000000000000000000000000000000000000000000000000000600052602260045260246000fd5b612b0e80620002cb6000396000f3fe608060405234801561001057600080fd5b50600436106101165760003560e01c8063715018a6116100a2578063af640d0f11610071578063af640d0f146102cd578063b88d4fde146102eb578063c87b56dd14610307578063e985e9c514610337578063f2fde38b1461036757610116565b8063715018a61461026b5780638da5cb5b1461027557806395d89b4114610293578063a22cb465146102b157610116565b80631249c58b116100e95780631249c58b146101b557806323b872dd146101d357806342842e0e146101ef5780636352211e1461020b57806370a082311461023b57610116565b806301ffc9a71461011b57806306fdde031461014b578063081812fc14610169578063095ea7b314610199575b600080fd5b61013560048036038101906101309190611c12565b610383565b6040516101429190612018565b60405180910390f35b610153610465565b6040516101609190612033565b60405180910390f35b610183600480360381019061017e9190611c64565b6104f7565b6040516101909190611fb1565b60405180910390f35b6101b360048036038101906101ae9190611bd6565b61057c565b005b6101bd610694565b6040516101ca9190612255565b60405180910390f35b6101ed60048036038101906101e89190611ad0565b6106bf565b005b61020960048036038101906102049190611ad0565b61071f565b005b61022560048036038101906102209190611c64565b61073f565b6040516102329190611fb1565b60405180910390f35b61025560048036038101906102509190611a6b565b6107f1565b6040516102629190612255565b60405180910390f35b6102736108a9565b005b61027d610931565b60405161028a9190611fb1565b60405180910390f35b61029b61095b565b6040516102a89190612033565b60405180910390f35b6102cb60048036038101906102c69190611b9a565b6109ed565b005b6102d5610a03565b6040516102e29190612255565b60405180910390f35b61030560048036038101906103009190611b1f565b610a14565b005b610321600480360381019061031c9190611c64565b610a76565b60405161032e9190612033565b60405180910390f35b610351600480360381019061034c9190611a94565b610b1d565b60405161035e9190612018565b60405180910390f35b610381600480360381019061037c9190611a6b565b610bb1565b005b60007f80ac58cd000000000000000000000000000000000000000000000000000000007bffffffffffffffffffffffffffffffffffffffffffffffffffffffff1916827bffffffffffffffffffffffffffffffffffffffffffffffffffffffff1916148061044e57507f5b5e139f000000000000000000000000000000000000000000000000000000007bffffffffffffffffffffffffffffffffffffffffffffffffffffffff1916827bffffffffffffffffffffffffffffffffffffffffffffffffffffffff1916145b8061045e575061045d82610ca9565b5b9050919050565b6060600080546104749061247a565b80601f01602080910402602001604051908101604052809291908181526020018280546104a09061247a565b80156104ed5780601f106104c2576101008083540402835291602001916104ed565b820191906000526020600020905b8154815290600101906020018083116104d057829003601f168201915b5050505050905090565b600061050282610d13565b610541576040517f08c379a0000000000000000000000000000000000000000000000000000000008152600401610538906121b5565b60405180910390fd5b6004600083815260200190815260200160002060009054906101000a900473ffffffffffffffffffffffffffffffffffffffff169050919050565b60006105878261073f565b90508073ffffffffffffffffffffffffffffffffffffffff168373ffffffffffffffffffffffffffffffffffffffff1614156105f8576040517f08c379a00000000000000000000000000000000000000000000000000000000081526004016105ef90612215565b60405180910390fd5b8073ffffffffffffffffffffffffffffffffffffffff16610617610d7f565b73ffffffffffffffffffffffffffffffffffffffff161480610646575061064581610640610d7f565b610b1d565b5b610685576040517f08c379a000000000000000000000000000000000000000000000000000000000815260040161067c90612135565b60405180910390fd5b61068f8383610d87565b505050565b60006106a06007610e40565b60006106ac6007610e56565b90506106b83382610e64565b8091505090565b6106d06106ca610d7f565b8261103e565b61070f576040517f08c379a000000000000000000000000000000000000000000000000000000000815260040161070690612235565b60405180910390fd5b61071a83838361111c565b505050565b61073a83838360405180602001604052806000815250610a14565b505050565b6000806002600084815260200190815260200160002060009054906101000a900473ffffffffffffffffffffffffffffffffffffffff169050600073ffffffffffffffffffffffffffffffffffffffff168173ffffffffffffffffffffffffffffffffffffffff1614156107e8576040517f08c379a00000000000000000000000000000000000000000000000000000000081526004016107df90612175565b60405180910390fd5b80915050919050565b60008073ffffffffffffffffffffffffffffffffffffffff168273ffffffffffffffffffffffffffffffffffffffff161415610862576040517f08c379a000000000000000000000000000000000000000000000000000000000815260040161085990612155565b60405180910390fd5b600360008373ffffffffffffffffffffffffffffffffffffffff1673ffffffffffffffffffffffffffffffffffffffff168152602001908152602001600020549050919050565b6108b1610d7f565b73ffffffffffffffffffffffffffffffffffffffff166108cf610931565b73ffffffffffffffffffffffffffffffffffffffff1614610925576040517f08c379a000000000000000000000000000000000000000000000000000000000815260040161091c906121d5565b60405180910390fd5b61092f6000611383565b565b6000600660009054906101000a900473ffffffffffffffffffffffffffffffffffffffff16905090565b60606001805461096a9061247a565b80601f01602080910402602001604051908101604052809291908181526020018280546109969061247a565b80156109e35780601f106109b8576101008083540402835291602001916109e3565b820191906000526020600020905b8154815290600101906020018083116109c657829003601f168201915b5050505050905090565b6109ff6109f8610d7f565b8383611449565b5050565b6000610a0f6007610e56565b905090565b610a25610a1f610d7f565b8361103e565b610a64576040517f08c379a0000000000000000000000000000000000000000000000000000000008152600401610a5b90612235565b60405180910390fd5b610a70848484846115b6565b50505050565b6060610a8182610d13565b610ac0576040517f08c379a0000000000000000000000000000000000000000000000000000000008152600401610ab7906121f5565b60405180910390fd5b6000610aca611612565b90506000815111610aea5760405180602001604052806000815250610b15565b80610af484611629565b604051602001610b05929190611f8d565b6040516020818303038152906040525b915050919050565b6000600560008473ffffffffffffffffffffffffffffffffffffffff1673ffffffffffffffffffffffffffffffffffffffff16815260200190815260200160002060008373ffffffffffffffffffffffffffffffffffffffff1673ffffffffffffffffffffffffffffffffffffffff16815260200190815260200160002060009054906101000a900460ff16905092915050565b610bb9610d7f565b73ffffffffffffffffffffffffffffffffffffffff16610bd7610931565b73ffffffffffffffffffffffffffffffffffffffff1614610c2d576040517f08c379a0000000000000000000000000000000000000000000000000000000008152600401610c24906121d5565b60405180910390fd5b600073ffffffffffffffffffffffffffffffffffffffff168173ffffffffffffffffffffffffffffffffffffffff161415610c9d576040517f08c379a0000000000000000000000000000000000000000000000000000000008152600401610c9490612075565b60405180910390fd5b610ca681611383565b50565b60007f01ffc9a7000000000000000000000000000000000000000000000000000000007bffffffffffffffffffffffffffffffffffffffffffffffffffffffff1916827bffffffffffffffffffffffffffffffffffffffffffffffffffffffff1916149050919050565b60008073ffffffffffffffffffffffffffffffffffffffff166002600084815260200190815260200160002060009054906101000a900473ffffffffffffffffffffffffffffffffffffffff1673ffffffffffffffffffffffffffffffffffffffff1614159050919050565b600033905090565b816004600083815260200190815260200160002060006101000a81548173ffffffffffffffffffffffffffffffffffffffff021916908373ffffffffffffffffffffffffffffffffffffffff160217905550808273ffffffffffffffffffffffffffffffffffffffff16610dfa8361073f565b73ffffffffffffffffffffffffffffffffffffffff167f8c5be1e5ebec7d5bd14f71427d1e84f3dd0314c0f7b2291e5b200ac8c7c3b92560405160405180910390a45050565b6001816000016000828254019250508190555050565b600081600001549050919050565b600073ffffffffffffffffffffffffffffffffffffffff168273ffffffffffffffffffffffffffffffffffffffff161415610ed4576040517f08c379a0000000000000000000000000000000000000000000000000000000008152600401610ecb90612195565b60405180910390fd5b610edd81610d13565b15610f1d576040517f08c379a0000000000000000000000000000000000000000000000000000000008152600401610f14906120b5565b60405180910390fd5b610f29600083836117d6565b6001600360008473ffffffffffffffffffffffffffffffffffffffff1673ffffffffffffffffffffffffffffffffffffffff1681526020019081526020016000206000828254610f799190612309565b92505081905550816002600083815260200190815260200160002060006101000a81548173ffffffffffffffffffffffffffffffffffffffff021916908373ffffffffffffffffffffffffffffffffffffffff160217905550808273ffffffffffffffffffffffffffffffffffffffff16600073ffffffffffffffffffffffffffffffffffffffff167fddf252ad1be2c89b69c2b068fc378daa952ba7f163c4a11628f55a4df523b3ef60405160405180910390a461103a600083836117db565b5050565b600061104982610d13565b611088576040517f08c379a000000000000000000000000000000000000000000000000000000000815260040161107f90612115565b60405180910390fd5b60006110938361073f565b90508073ffffffffffffffffffffffffffffffffffffffff168473ffffffffffffffffffffffffffffffffffffffff1614806110d557506110d48185610b1d565b5b8061111357508373ffffffffffffffffffffffffffffffffffffffff166110fb846104f7565b73ffffffffffffffffffffffffffffffffffffffff16145b91505092915050565b8273ffffffffffffffffffffffffffffffffffffffff1661113c8261073f565b73ffffffffffffffffffffffffffffffffffffffff1614611192576040517f08c379a000000000000000000000000000000000000000000000000000000000815260040161118990612095565b60405180910390fd5b600073ffffffffffffffffffffffffffffffffffffffff168273ffffffffffffffffffffffffffffffffffffffff161415611202576040517f08c379a00000000000000000000000000000000000000000000000000000000081526004016111f9906120d5565b60405180910390fd5b61120d8383836117d6565b611218600082610d87565b6001600360008573ffffffffffffffffffffffffffffffffffffffff1673ffffffffffffffffffffffffffffffffffffffff16815260200190815260200160002060008282546112689190612390565b925050819055506001600360008473ffffffffffffffffffffffffffffffffffffffff1673ffffffffffffffffffffffffffffffffffffffff16815260200190815260200160002060008282546112bf9190612309565b92505081905550816002600083815260200190815260200160002060006101000a81548173ffffffffffffffffffffffffffffffffffffffff021916908373ffffffffffffffffffffffffffffffffffffffff160217905550808273ffffffffffffffffffffffffffffffffffffffff168473ffffffffffffffffffffffffffffffffffffffff167fddf252ad1be2c89b69c2b068fc378daa952ba7f163c4a11628f55a4df523b3ef60405160405180910390a461137e8383836117db565b505050565b6000600660009054906101000a900473ffffffffffffffffffffffffffffffffffffffff16905081600660006101000a81548173ffffffffffffffffffffffffffffffffffffffff021916908373ffffffffffffffffffffffffffffffffffffffff1602179055508173ffffffffffffffffffffffffffffffffffffffff168173ffffffffffffffffffffffffffffffffffffffff167f8be0079c531659141344cd1fd0a4f28419497f9722a3daafe3b4186f6b6457e060405160405180910390a35050565b8173ffffffffffffffffffffffffffffffffffffffff168373ffffffffffffffffffffffffffffffffffffffff1614156114b8576040517f08c379a00000000000000000000000000000000000000000000000000000000081526004016114af906120f5565b60405180910390fd5b80600560008573ffffffffffffffffffffffffffffffffffffffff1673ffffffffffffffffffffffffffffffffffffffff16815260200190815260200160002060008473ffffffffffffffffffffffffffffffffffffffff1673ffffffffffffffffffffffffffffffffffffffff16815260200190815260200160002060006101000a81548160ff0219169083151502179055508173ffffffffffffffffffffffffffffffffffffffff168373ffffffffffffffffffffffffffffffffffffffff167f17307eab39ab6107e8899845ad3d59bd9653f200f220920489ca2b5937696c31836040516115a99190612018565b60405180910390a3505050565b6115c184848461111c565b6115cd848484846117e0565b61160c576040517f08c379a000000000000000000000000000000000000000000000000000000000815260040161160390612055565b60405180910390fd5b50505050565b606060405180602001604052806000815250905090565b60606000821415611671576040518060400160405280600181526020017f300000000000000000000000000000000000000000000000000000000000000081525090506117d1565b600082905060005b600082146116a357808061168c906124dd565b915050600a8261169c919061235f565b9150611679565b60008167ffffffffffffffff8111156116e5577f4e487b7100000000000000000000000000000000000000000000000000000000600052604160045260246000fd5b6040519080825280601f01601f1916602001820160405280156117175781602001600182028036833780820191505090505b5090505b600085146117ca576001826117309190612390565b9150600a8561173f9190612526565b603061174b9190612309565b60f81b818381518110611787577f4e487b7100000000000000000000000000000000000000000000000000000000600052603260045260246000fd5b60200101907effffffffffffffffffffffffffffffffffffffffffffffffffffffffffffff1916908160001a905350600a856117c3919061235f565b945061171b565b8093505050505b919050565b505050565b505050565b60006118018473ffffffffffffffffffffffffffffffffffffffff16611977565b1561196a578373ffffffffffffffffffffffffffffffffffffffff1663150b7a0261182a610d7f565b8786866040518563ffffffff1660e01b815260040161184c9493929190611fcc565b602060405180830381600087803b15801561186657600080fd5b505af192505050801561189757506040513d601f19601f820116820180604052508101906118949190611c3b565b60015b61191a573d80600081146118c7576040519150601f19603f3d011682016040523d82523d6000602084013e6118cc565b606091505b50600081511415611912576040517f08c379a000000000000000000000000000000000000000000000000000000000815260040161190990612055565b60405180910390fd5b805181602001fd5b63150b7a0260e01b7bffffffffffffffffffffffffffffffffffffffffffffffffffffffff1916817bffffffffffffffffffffffffffffffffffffffffffffffffffffffff19161491505061196f565b600190505b949350505050565b6000808273ffffffffffffffffffffffffffffffffffffffff163b119050919050565b60006119ad6119a884612295565b612270565b9050828152602081018484840111156119c557600080fd5b6119d0848285612438565b509392505050565b6000813590506119e781612a7c565b92915050565b6000813590506119fc81612a93565b92915050565b600081359050611a1181612aaa565b92915050565b600081519050611a2681612aaa565b92915050565b600082601f830112611a3d57600080fd5b8135611a4d84826020860161199a565b91505092915050565b600081359050611a6581612ac1565b92915050565b600060208284031215611a7d57600080fd5b6000611a8b848285016119d8565b91505092915050565b60008060408385031215611aa757600080fd5b6000611ab5858286016119d8565b9250506020611ac6858286016119d8565b9150509250929050565b600080600060608486031215611ae557600080fd5b6000611af3868287016119d8565b9350506020611b04868287016119d8565b9250506040611b1586828701611a56565b9150509250925092565b60008060008060808587031215611b3557600080fd5b6000611b43878288016119d8565b9450506020611b54878288016119d8565b9350506040611b6587828801611a56565b925050606085013567ffffffffffffffff811115611b8257600080fd5b611b8e87828801611a2c565b91505092959194509250565b60008060408385031215611bad57600080fd5b6000611bbb858286016119d8565b9250506020611bcc858286016119ed565b9150509250929050565b60008060408385031215611be957600080fd5b6000611bf7858286016119d8565b9250506020611c0885828601611a56565b9150509250929050565b600060208284031215611c2457600080fd5b6000611c3284828501611a02565b91505092915050565b600060208284031215611c4d57600080fd5b6000611c5b84828501611a17565b91505092915050565b600060208284031215611c7657600080fd5b6000611c8484828501611a56565b91505092915050565b611c96816123c4565b82525050565b611ca5816123d6565b82525050565b6000611cb6826122c6565b611cc081856122dc565b9350611cd0818560208601612447565b611cd981612613565b840191505092915050565b6000611cef826122d1565b611cf981856122ed565b9350611d09818560208601612447565b611d1281612613565b840191505092915050565b6000611d28826122d1565b611d3281856122fe565b9350611d42818560208601612447565b80840191505092915050565b6000611d5b6032836122ed565b9150611d6682612624565b604082019050919050565b6000611d7e6026836122ed565b9150611d8982612673565b604082019050919050565b6000611da16025836122ed565b9150611dac826126c2565b604082019050919050565b6000611dc4601c836122ed565b9150611dcf82612711565b602082019050919050565b6000611de76024836122ed565b9150611df28261273a565b604082019050919050565b6000611e0a6019836122ed565b9150611e1582612789565b602082019050919050565b6000611e2d602c836122ed565b9150611e38826127b2565b604082019050919050565b6000611e506038836122ed565b9150611e5b82612801565b604082019050919050565b6000611e73602a836122ed565b9150611e7e82612850565b604082019050919050565b6000611e966029836122ed565b9150611ea18261289f565b604082019050919050565b6000611eb96020836122ed565b9150611ec4826128ee565b602082019050919050565b6000611edc602c836122ed565b9150611ee782612917565b604082019050919050565b6000611eff6020836122ed565b9150611f0a82612966565b602082019050919050565b6000611f22602f836122ed565b9150611f2d8261298f565b604082019050919050565b6000611f456021836122ed565b9150611f50826129de565b604082019050919050565b6000611f686031836122ed565b9150611f7382612a2d565b604082019050919050565b611f878161242e565b82525050565b6000611f998285611d1d565b9150611fa58284611d1d565b91508190509392505050565b6000602082019050611fc66000830184611c8d565b92915050565b6000608082019050611fe16000830187611c8d565b611fee6020830186611c8d565b611ffb6040830185611f7e565b818103606083015261200d8184611cab565b905095945050505050565b600060208201905061202d6000830184611c9c565b92915050565b6000602082019050818103600083015261204d8184611ce4565b905092915050565b6000602082019050818103600083015261206e81611d4e565b9050919050565b6000602082019050818103600083015261208e81611d71565b9050919050565b600060208201905081810360008301526120ae81611d94565b9050919050565b600060208201905081810360008301526120ce81611db7565b9050919050565b600060208201905081810360008301526120ee81611dda565b9050919050565b6000602082019050818103600083015261210e81611dfd565b9050919050565b6000602082019050818103600083015261212e81611e20565b9050919050565b6000602082019050818103600083015261214e81611e43565b9050919050565b6000602082019050818103600083015261216e81611e66565b9050919050565b6000602082019050818103600083015261218e81611e89565b9050919050565b600060208201905081810360008301526121ae81611eac565b9050919050565b600060208201905081810360008301526121ce81611ecf565b9050919050565b600060208201905081810360008301526121ee81611ef2565b9050919050565b6000602082019050818103600083015261220e81611f15565b9050919050565b6000602082019050818103600083015261222e81611f38565b9050919050565b6000602082019050818103600083015261224e81611f5b565b9050919050565b600060208201905061226a6000830184611f7e565b92915050565b600061227a61228b565b905061228682826124ac565b919050565b6000604051905090565b600067ffffffffffffffff8211156122b0576122af6125e4565b5b6122b982612613565b9050602081019050919050565b600081519050919050565b600081519050919050565b600082825260208201905092915050565b600082825260208201905092915050565b600081905092915050565b60006123148261242e565b915061231f8361242e565b9250827fffffffffffffffffffffffffffffffffffffffffffffffffffffffffffffffff0382111561235457612353612557565b5b828201905092915050565b600061236a8261242e565b91506123758361242e565b92508261238557612384612586565b5b828204905092915050565b600061239b8261242e565b91506123a68361242e565b9250828210156123b9576123b8612557565b5b828203905092915050565b60006123cf8261240e565b9050919050565b60008115159050919050565b60007fffffffff0000000000000000000000000000000000000000000000000000000082169050919050565b600073ffffffffffffffffffffffffffffffffffffffff82169050919050565b6000819050919050565b82818337600083830152505050565b60005b8381101561246557808201518184015260208101905061244a565b83811115612474576000848401525b50505050565b6000600282049050600182168061249257607f821691505b602082108114156124a6576124a56125b5565b5b50919050565b6124b582612613565b810181811067ffffffffffffffff821117156124d4576124d36125e4565b5b80604052505050565b60006124e88261242e565b91507fffffffffffffffffffffffffffffffffffffffffffffffffffffffffffffffff82141561251b5761251a612557565b5b600182019050919050565b60006125318261242e565b915061253c8361242e565b92508261254c5761254b612586565b5b828206905092915050565b7f4e487b7100000000000000000000000000000000000000000000000000000000600052601160045260246000fd5b7f4e487b7100000000000000000000000000000000000000000000000000000000600052601260045260246000fd5b7f4e487b7100000000000000000000000000000000000000000000000000000000600052602260045260246000fd5b7f4e487b7100000000000000000000000000000000000000000000000000000000600052604160045260246000fd5b6000601f19601f8301169050919050565b7f4552433732313a207472616e7366657220746f206e6f6e20455243373231526560008201527f63656976657220696d706c656d656e7465720000000000000000000000000000602082015250565b7f4f776e61626c653a206e6577206f776e657220697320746865207a65726f206160008201527f6464726573730000000000000000000000000000000000000000000000000000602082015250565b7f4552433732313a207472616e736665722066726f6d20696e636f72726563742060008201527f6f776e6572000000000000000000000000000000000000000000000000000000602082015250565b7f4552433732313a20746f6b656e20616c7265616479206d696e74656400000000600082015250565b7f4552433732313a207472616e7366657220746f20746865207a65726f2061646460008201527f7265737300000000000000000000000000000000000000000000000000000000602082015250565b7f4552433732313a20617070726f766520746f2063616c6c657200000000000000600082015250565b7f4552433732313a206f70657261746f7220717565727920666f72206e6f6e657860008201527f697374656e7420746f6b656e0000000000000000000000000000000000000000602082015250565b7f4552433732313a20617070726f76652063616c6c6572206973206e6f74206f7760008201527f6e6572206e6f7220617070726f76656420666f7220616c6c0000000000000000602082015250565b7f4552433732313a2062616c616e636520717565727920666f7220746865207a6560008201527f726f206164647265737300000000000000000000000000000000000000000000602082015250565b7f4552433732313a206f776e657220717565727920666f72206e6f6e657869737460008201527f656e7420746f6b656e0000000000000000000000000000000000000000000000602082015250565b7f4552433732313a206d696e7420746f20746865207a65726f2061646472657373600082015250565b7f4552433732313a20617070726f76656420717565727920666f72206e6f6e657860008201527f697374656e7420746f6b656e0000000000000000000000000000000000000000602082015250565b7f4f776e61626c653a2063616c6c6572206973206e6f7420746865206f776e6572600082015250565b7f4552433732314d657461646174613a2055524920717565727920666f72206e6f60008201527f6e6578697374656e7420746f6b656e0000000000000000000000000000000000602082015250565b7f4552433732313a20617070726f76616c20746f2063757272656e74206f776e6560008201527f7200000000000000000000000000000000000000000000000000000000000000602082015250565b7f4552433732313a207472616e736665722063616c6c6572206973206e6f74206f60008201527f776e6572206e6f7220617070726f766564000000000000000000000000000000602082015250565b612a85816123c4565b8114612a9057600080fd5b50565b612a9c816123d6565b8114612aa757600080fd5b50565b612ab3816123e2565b8114612abe57600080fd5b50565b612aca8161242e565b8114612ad557600080fd5b5056fea2646970667358221220f866c914931fc4a0f8d58a5121a6721f5f61b36e752eef8d10c3ccab5a5a775664736f6c63430008040033",
  "linkReferences": {},
  "deployedLinkReferences": {}
}