{
  "_format": "hh-sol-artifact-1",
  "contractName": "Swap",
  "sourceName": "contracts/Swap.sol",
  "abi": [
    {
      "inputs": [],
      "stateMutability": "nonpayable",
      "type": "constructor"
    },
    {
      "anonymous": false,
      "inputs": [
        {
          "indexed": true,
          "internalType": "address",
          "name": "previousOwner",
          "type": "address"
        },
        {
          "indexed": true,
          "internalType": "address",
          "name": "newOwner",
          "type": "address"
        }
      ],
      "name": "OwnershipTransferred",
      "type": "event"
    },
    {
      "anonymous": false,
      "inputs": [
        {
          "indexed": false,
          "internalType": "address",
          "name": "account",
          "type": "address"
        }
      ],
      "name": "Paused",
      "type": "event"
    },
    {
      "anonymous": false,
      "inputs": [
        {
          "indexed": false,
          "internalType": "uint256",
          "name": "_id",
          "type": "uint256"
        },
        {
          "indexed": true,
          "internalType": "address",
          "name": "_initiator",
          "type": "address"
        },
        {
          "indexed": false,
          "internalType": "address",
          "name": "_recipient",
          "type": "address"
        },
        {
          "indexed": true,
          "internalType": "enum Swap.SwapState",
          "name": "_state",
          "type": "uint8"
        },
        {
          "indexed": true,
          "internalType": "uint256",
          "name": "_timestamp",
          "type": "uint256"
        }
      ],
      "name": "SwapEvent",
      "type": "event"
    },
    {
      "anonymous": false,
      "inputs": [
        {
          "indexed": false,
          "internalType": "address",
          "name": "account",
          "type": "address"
        }
      ],
      "name": "Unpaused",
      "type": "event"
    },
    {
      "inputs": [
        {
          "internalType": "uint256",
          "name": "_swapId",
          "type": "uint256"
        }
      ],
      "name": "accept",
      "outputs": [],
      "stateMutability": "nonpayable",
      "type": "function"
    },
    {
      "inputs": [
        {
          "internalType": "uint256",
          "name": "_swapId",
          "type": "uint256"
        }
      ],
      "name": "cancel",
      "outputs": [],
      "stateMutability": "nonpayable",
      "type": "function"
    },
    {
      "inputs": [
        {
          "components": [
            {
              "internalType": "address",
              "name": "tokenContract",
              "type": "address"
            },
            {
              "internalType": "address",
              "name": "tokenType",
              "type": "address"
            },
            {
              "internalType": "uint256[]",
              "name": "tokenIds",
              "type": "uint256[]"
            },
            {
              "internalType": "uint256",
              "name": "amount",
              "type": "uint256"
            },
            {
              "internalType": "uint256[]",
              "name": "amounts",
              "type": "uint256[]"
            },
            {
              "internalType": "bytes",
              "name": "data",
              "type": "bytes"
            }
          ],
          "internalType": "struct Swap.SwapItem[]",
          "name": "_offer",
          "type": "tuple[]"
        },
        {
          "components": [
            {
              "internalType": "address",
              "name": "tokenContract",
              "type": "address"
            },
            {
              "internalType": "address",
              "name": "tokenType",
              "type": "address"
            },
            {
              "internalType": "uint256[]",
              "name": "tokenIds",
              "type": "uint256[]"
            },
            {
              "internalType": "uint256",
              "name": "amount",
              "type": "uint256"
            },
            {
              "internalType": "uint256[]",
              "name": "amounts",
              "type": "uint256[]"
            },
            {
              "internalType": "bytes",
              "name": "data",
              "type": "bytes"
            }
          ],
          "internalType": "struct Swap.SwapItem[]",
          "name": "_retrieve",
          "type": "tuple[]"
        },
        {
          "internalType": "address",
          "name": "_recipient",
          "type": "address"
        }
      ],
      "name": "create",
      "outputs": [],
      "stateMutability": "nonpayable",
      "type": "function"
    },
    {
      "inputs": [
        {
          "internalType": "uint256",
          "name": "_swapId",
          "type": "uint256"
        }
      ],
      "name": "getSwap",
      "outputs": [
        {
          "components": [
            {
              "internalType": "uint256",
              "name": "swapId",
              "type": "uint256"
            },
            {
              "internalType": "uint256",
              "name": "createdTimestamp",
              "type": "uint256"
            },
            {
              "internalType": "uint256",
              "name": "executedTimestamp",
              "type": "uint256"
            },
            {
              "components": [
                {
                  "internalType": "address",
                  "name": "addr",
                  "type": "address"
                },
                {
                  "internalType": "uint256",
                  "name": "balance",
                  "type": "uint256"
                }
              ],
              "internalType": "struct Swap.Entity",
              "name": "initiator",
              "type": "tuple"
            },
            {
              "components": [
                {
                  "internalType": "address",
                  "name": "addr",
                  "type": "address"
                },
                {
                  "internalType": "uint256",
                  "name": "balance",
                  "type": "uint256"
                }
              ],
              "internalType": "struct Swap.Entity",
              "name": "recipient",
              "type": "tuple"
            },
            {
              "internalType": "enum Swap.SwapState",
              "name": "state",
              "type": "uint8"
            }
          ],
          "internalType": "struct Swap.SwapData",
          "name": "",
          "type": "tuple"
        }
      ],
      "stateMutability": "view",
      "type": "function"
    },
    {
      "inputs": [
        {
          "internalType": "address",
          "name": "_creator",
          "type": "address"
        }
      ],
      "name": "getSwapIds",
      "outputs": [
        {
          "internalType": "uint256[]",
          "name": "",
          "type": "uint256[]"
        }
      ],
      "stateMutability": "view",
      "type": "function"
    },
    {
      "inputs": [
        {
          "internalType": "uint256",
          "name": "_swapId",
          "type": "uint256"
        }
      ],
      "name": "getSwapItems",
      "outputs": [
        {
          "components": [
            {
              "internalType": "address",
              "name": "tokenContract",
              "type": "address"
            },
            {
              "internalType": "address",
              "name": "tokenType",
              "type": "address"
            },
            {
              "internalType": "uint256[]",
              "name": "tokenIds",
              "type": "uint256[]"
            },
            {
              "internalType": "uint256",
              "name": "amount",
              "type": "uint256"
            },
            {
              "internalType": "uint256[]",
              "name": "amounts",
              "type": "uint256[]"
            },
            {
              "internalType": "bytes",
              "name": "data",
              "type": "bytes"
            }
          ],
          "internalType": "struct Swap.SwapItem[]",
          "name": "offer",
          "type": "tuple[]"
        },
        {
          "components": [
            {
              "internalType": "address",
              "name": "tokenContract",
              "type": "address"
            },
            {
              "internalType": "address",
              "name": "tokenType",
              "type": "address"
            },
            {
              "internalType": "uint256[]",
              "name": "tokenIds",
              "type": "uint256[]"
            },
            {
              "internalType": "uint256",
              "name": "amount",
              "type": "uint256"
            },
            {
              "internalType": "uint256[]",
              "name": "amounts",
              "type": "uint256[]"
            },
            {
              "internalType": "bytes",
              "name": "data",
              "type": "bytes"
            }
          ],
          "internalType": "struct Swap.SwapItem[]",
          "name": "recieve",
          "type": "tuple[]"
        }
      ],
      "stateMutability": "view",
      "type": "function"
    },
    {
      "inputs": [
        {
          "internalType": "address",
          "name": "operator",
          "type": "address"
        },
        {
          "internalType": "address",
          "name": "from",
          "type": "address"
        },
        {
          "internalType": "uint256[]",
          "name": "ids",
          "type": "uint256[]"
        },
        {
          "internalType": "uint256[]",
          "name": "amounts",
          "type": "uint256[]"
        },
        {
          "internalType": "bytes",
          "name": "data",
          "type": "bytes"
        }
      ],
      "name": "onERC1155BatchReceived",
      "outputs": [
        {
          "internalType": "bytes4",
          "name": "",
          "type": "bytes4"
        }
      ],
      "stateMutability": "pure",
      "type": "function"
    },
    {
      "inputs": [
        {
          "internalType": "address",
          "name": "operator",
          "type": "address"
        },
        {
          "internalType": "address",
          "name": "from",
          "type": "address"
        },
        {
          "internalType": "uint256",
          "name": "id",
          "type": "uint256"
        },
        {
          "internalType": "uint256",
          "name": "value",
          "type": "uint256"
        },
        {
          "internalType": "bytes",
          "name": "data",
          "type": "bytes"
        }
      ],
      "name": "onERC1155Received",
      "outputs": [
        {
          "internalType": "bytes4",
          "name": "",
          "type": "bytes4"
        }
      ],
      "stateMutability": "pure",
      "type": "function"
    },
    {
      "inputs": [
        {
          "internalType": "address",
          "name": "operator",
          "type": "address"
        },
        {
          "internalType": "address",
          "name": "from",
          "type": "address"
        },
        {
          "internalType": "uint256",
          "name": "tokenId",
          "type": "uint256"
        },
        {
          "internalType": "bytes",
          "name": "data",
          "type": "bytes"
        }
      ],
      "name": "onERC721Received",
      "outputs": [
        {
          "internalType": "bytes4",
          "name": "",
          "type": "bytes4"
        }
      ],
      "stateMutability": "pure",
      "type": "function"
    },
    {
      "inputs": [],
      "name": "owner",
      "outputs": [
        {
          "internalType": "address",
          "name": "",
          "type": "address"
        }
      ],
      "stateMutability": "view",
      "type": "function"
    },
    {
      "inputs": [],
      "name": "paused",
      "outputs": [
        {
          "internalType": "bool",
          "name": "",
          "type": "bool"
        }
      ],
      "stateMutability": "view",
      "type": "function"
    },
    {
      "inputs": [],
      "name": "renounceOwnership",
      "outputs": [],
      "stateMutability": "nonpayable",
      "type": "function"
    },
    {
      "inputs": [
        {
          "internalType": "bytes4",
          "name": "interfaceID",
          "type": "bytes4"
        }
      ],
      "name": "supportsInterface",
      "outputs": [
        {
          "internalType": "bool",
          "name": "",
          "type": "bool"
        }
      ],
      "stateMutability": "view",
      "type": "function"
    },
    {
      "inputs": [
        {
          "internalType": "address",
          "name": "newOwner",
          "type": "address"
        }
      ],
      "name": "transferOwnership",
      "outputs": [],
      "stateMutability": "nonpayable",
      "type": "function"
    }
  ],
  "bytecode": "0x60806040523480156200001157600080fd5b5062000032620000266200005260201b60201c565b6200005a60201b60201c565b60008060146101000a81548160ff0219169083151502179055506200011e565b600033905090565b60008060009054906101000a900473ffffffffffffffffffffffffffffffffffffffff169050816000806101000a81548173ffffffffffffffffffffffffffffffffffffffff021916908373ffffffffffffffffffffffffffffffffffffffff1602179055508173ffffffffffffffffffffffffffffffffffffffff168173ffffffffffffffffffffffffffffffffffffffff167f8be0079c531659141344cd1fd0a4f28419497f9722a3daafe3b4186f6b6457e060405160405180910390a35050565b614309806200012e6000396000f3fe608060405234801561001057600080fd5b50600436106100ea5760003560e01c80635c975abb1161008c578063bc197c8111610066578063bc197c811461025e578063d80b383f1461028e578063f23a6e61146102aa578063f2fde38b146102da576100ea565b80635c975abb14610218578063715018a6146102365780638da5cb5b14610240576100ea565b806319b05f49116100c857806319b05f491461017f57806335bc62211461019b57806340e58ee5146101cc5780634a0d89ba146101e8576100ea565b806301ffc9a7146100ef5780630c14414e1461011f578063150b7a021461014f575b600080fd5b61010960048036038101906101049190613427565b6102f6565b6040516101169190613a8d565b60405180910390f35b61013960048036038101906101349190613178565b610358565b6040516101469190613a6b565b60405180910390f35b6101696004803603810190610164919061326d565b6103ef565b6040516101769190613aa8565b60405180910390f35b61019960048036038101906101949190613450565b61041d565b005b6101b560048036038101906101b09190613450565b610d62565b6040516101c3929190613a34565b60405180910390f35b6101e660048036038101906101e19190613450565b611324565b005b61020260048036038101906101fd9190613450565b6119f0565b60405161020f9190613c03565b60405180910390f35b610220611bf7565b60405161022d9190613a8d565b60405180910390f35b61023e611c0d565b005b610248611c95565b6040516102559190613951565b60405180910390f35b610278600480360381019061027391906131a1565b611cbe565b6040516102859190613aa8565b60405180910390f35b6102a860048036038101906102a3919061337f565b611cef565b005b6102c460048036038101906102bf91906132ed565b61265f565b6040516102d19190613aa8565b60405180910390f35b6102f460048036038101906102ef9190613178565b61268e565b005b60006301ffc9a760e01b827bffffffffffffffffffffffffffffffffffffffffffffffffffffffff191614806103515750634e2312e060e01b827bffffffffffffffffffffffffffffffffffffffffffffffffffffffff1916145b9050919050565b6060600560008373ffffffffffffffffffffffffffffffffffffffff1673ffffffffffffffffffffffffffffffffffffffff1681526020019081526020016000208054806020026020016040519081016040528092919081815260200182805480156103e357602002820191906000526020600020905b8154815260200190600101908083116103cf575b50505050509050919050565b60007f150b7a023d4804d13e8c85fb27262cb750cf6ba9f9dd3bb30d90f482ceeb4b1f905095945050505050565b806104286001612786565b8110610469576040517f08c379a000000000000000000000000000000000000000000000000000000000815260040161046090613b63565b60405180910390fd5b81600060028111156104a4577f4e487b7100000000000000000000000000000000000000000000000000000000600052602160045260246000fd5b6004600083815260200190815260200160002060070160009054906101000a900460ff166002811115610500577f4e487b7100000000000000000000000000000000000000000000000000000000600052602160045260246000fd5b14610540576040517f08c379a000000000000000000000000000000000000000000000000000000000815260040161053790613bc3565b60405180910390fd5b610548611bf7565b15610588576040517f08c379a000000000000000000000000000000000000000000000000000000000815260040161057f90613b23565b60405180910390fd5b6000600460008581526020019081526020016000206003016040518060400160405290816000820160009054906101000a900473ffffffffffffffffffffffffffffffffffffffff1673ffffffffffffffffffffffffffffffffffffffff1673ffffffffffffffffffffffffffffffffffffffff16815260200160018201548152505090506000600460008681526020019081526020016000206005016040518060400160405290816000820160009054906101000a900473ffffffffffffffffffffffffffffffffffffffff1673ffffffffffffffffffffffffffffffffffffffff1673ffffffffffffffffffffffffffffffffffffffff1681526020016001820154815250509050806000015173ffffffffffffffffffffffffffffffffffffffff163373ffffffffffffffffffffffffffffffffffffffff1614610704576040517f08c379a00000000000000000000000000000000000000000000000000000000081526004016106fb90613be3565b60405180910390fd5b600042905080600460008881526020019081526020016000206002018190555060016004600088815260200190815260200160002060070160006101000a81548160ff02191690836002811115610784577f4e487b7100000000000000000000000000000000000000000000000000000000600052602160045260246000fd5b021790555060005b6003600088815260200190815260200160002080549050811015610a2757610a14338560000151600360008b815260200190815260200160002084815481106107fe577f4e487b7100000000000000000000000000000000000000000000000000000000600052603260045260246000fd5b90600052602060002090600602016040518060c00160405290816000820160009054906101000a900473ffffffffffffffffffffffffffffffffffffffff1673ffffffffffffffffffffffffffffffffffffffff1673ffffffffffffffffffffffffffffffffffffffff1681526020016001820160009054906101000a900473ffffffffffffffffffffffffffffffffffffffff1673ffffffffffffffffffffffffffffffffffffffff1673ffffffffffffffffffffffffffffffffffffffff1681526020016002820180548060200260200160405190810160405280929190818152602001828054801561091257602002820191906000526020600020905b8154815260200190600101908083116108fe575b50505050508152602001600382015481526020016004820180548060200260200160405190810160405280929190818152602001828054801561097457602002820191906000526020600020905b815481526020019060010190808311610960575b5050505050815260200160058201805461098d90613e92565b80601f01602080910402602001604051908101604052809291908181526020018280546109b990613e92565b8015610a065780601f106109db57610100808354040283529160200191610a06565b820191906000526020600020905b8154815290600101906020018083116109e957829003601f168201915b505050505081525050612794565b8080610a1f90613ef5565b91505061078c565b5060005b6002600088815260200190815260200160002080549050811015610cc657610cb3308460000151600260008b81526020019081526020016000208481548110610a9d577f4e487b7100000000000000000000000000000000000000000000000000000000600052603260045260246000fd5b90600052602060002090600602016040518060c00160405290816000820160009054906101000a900473ffffffffffffffffffffffffffffffffffffffff1673ffffffffffffffffffffffffffffffffffffffff1673ffffffffffffffffffffffffffffffffffffffff1681526020016001820160009054906101000a900473ffffffffffffffffffffffffffffffffffffffff1673ffffffffffffffffffffffffffffffffffffffff1673ffffffffffffffffffffffffffffffffffffffff16815260200160028201805480602002602001604051908101604052809291908181526020018280548015610bb157602002820191906000526020600020905b815481526020019060010190808311610b9d575b505050505081526020016003820154815260200160048201805480602002602001604051908101604052809291908181526020018280548015610c1357602002820191906000526020600020905b815481526020019060010190808311610bff575b50505050508152602001600582018054610c2c90613e92565b80601f0160208091040260200160405190810160405280929190818152602001828054610c5890613e92565b8015610ca55780601f10610c7a57610100808354040283529160200191610ca5565b820191906000526020600020905b815481529060010190602001808311610c8857829003601f168201915b505050505081525050612794565b8080610cbe90613ef5565b915050610a2b565b508060016002811115610d02577f4e487b7100000000000000000000000000000000000000000000000000000000600052602160045260246000fd5b846000015173ffffffffffffffffffffffffffffffffffffffff167fe9870785ead1817fcb88e851fe89fb685126a4b1b26b8a14eb04c7bf8f5953c1898660000151604051610d52929190613c1f565b60405180910390a4505050505050565b60608082610d706001612786565b8110610db1576040517f08c379a0000000000000000000000000000000000000000000000000000000008152600401610da890613b63565b60405180910390fd5b3373ffffffffffffffffffffffffffffffffffffffff166004600086815260200190815260200160002060030160000160009054906101000a900473ffffffffffffffffffffffffffffffffffffffff1673ffffffffffffffffffffffffffffffffffffffff1614610e58576040517f08c379a0000000000000000000000000000000000000000000000000000000008152600401610e4f90613b43565b60405180910390fd5b60026000858152602001908152602001600020805480602002602001604051908101604052809291908181526020016000905b828210156110b557838290600052602060002090600602016040518060c00160405290816000820160009054906101000a900473ffffffffffffffffffffffffffffffffffffffff1673ffffffffffffffffffffffffffffffffffffffff1673ffffffffffffffffffffffffffffffffffffffff1681526020016001820160009054906101000a900473ffffffffffffffffffffffffffffffffffffffff1673ffffffffffffffffffffffffffffffffffffffff1673ffffffffffffffffffffffffffffffffffffffff16815260200160028201805480602002602001604051908101604052809291908181526020018280548015610fa957602002820191906000526020600020905b815481526020019060010190808311610f95575b50505050508152602001600382015481526020016004820180548060200260200160405190810160405280929190818152602001828054801561100b57602002820191906000526020600020905b815481526020019060010190808311610ff7575b5050505050815260200160058201805461102490613e92565b80601f016020809104026020016040519081016040528092919081815260200182805461105090613e92565b801561109d5780601f106110725761010080835404028352916020019161109d565b820191906000526020600020905b81548152906001019060200180831161108057829003601f168201915b50505050508152505081526020019060010190610e8b565b50505050925060036000858152602001908152602001600020805480602002602001604051908101604052809291908181526020016000905b8282101561131857838290600052602060002090600602016040518060c00160405290816000820160009054906101000a900473ffffffffffffffffffffffffffffffffffffffff1673ffffffffffffffffffffffffffffffffffffffff1673ffffffffffffffffffffffffffffffffffffffff1681526020016001820160009054906101000a900473ffffffffffffffffffffffffffffffffffffffff1673ffffffffffffffffffffffffffffffffffffffff1673ffffffffffffffffffffffffffffffffffffffff1681526020016002820180548060200260200160405190810160405280929190818152602001828054801561120c57602002820191906000526020600020905b8154815260200190600101908083116111f8575b50505050508152602001600382015481526020016004820180548060200260200160405190810160405280929190818152602001828054801561126e57602002820191906000526020600020905b81548152602001906001019080831161125a575b5050505050815260200160058201805461128790613e92565b80601f01602080910402602001604051908101604052809291908181526020018280546112b390613e92565b80156113005780601f106112d557610100808354040283529160200191611300565b820191906000526020600020905b8154815290600101906020018083116112e357829003601f168201915b505050505081525050815260200190600101906110ee565b50505050915050915091565b8061132f6001612786565b8110611370576040517f08c379a000000000000000000000000000000000000000000000000000000000815260040161136790613b63565b60405180910390fd5b81600060028111156113ab577f4e487b7100000000000000000000000000000000000000000000000000000000600052602160045260246000fd5b6004600083815260200190815260200160002060070160009054906101000a900460ff166002811115611407577f4e487b7100000000000000000000000000000000000000000000000000000000600052602160045260246000fd5b14611447576040517f08c379a000000000000000000000000000000000000000000000000000000000815260040161143e90613bc3565b60405180910390fd5b6000600460008581526020019081526020016000206003016040518060400160405290816000820160009054906101000a900473ffffffffffffffffffffffffffffffffffffffff1673ffffffffffffffffffffffffffffffffffffffff1673ffffffffffffffffffffffffffffffffffffffff16815260200160018201548152505090506000600460008681526020019081526020016000206005016040518060400160405290816000820160009054906101000a900473ffffffffffffffffffffffffffffffffffffffff1673ffffffffffffffffffffffffffffffffffffffff1673ffffffffffffffffffffffffffffffffffffffff1681526020016001820154815250509050816000015173ffffffffffffffffffffffffffffffffffffffff163373ffffffffffffffffffffffffffffffffffffffff1614806115be5750806000015173ffffffffffffffffffffffffffffffffffffffff163373ffffffffffffffffffffffffffffffffffffffff16145b6115fd576040517f08c379a00000000000000000000000000000000000000000000000000000000081526004016115f490613b83565b60405180910390fd5b600042905080600460008881526020019081526020016000206002018190555060026004600088815260200190815260200160002060070160006101000a81548160ff0219169083600281111561167d577f4e487b7100000000000000000000000000000000000000000000000000000000600052602160045260246000fd5b021790555060005b60026000888152602001908152602001600020805490508110156119555761194230600460008a815260200190815260200160002060030160000160009054906101000a900473ffffffffffffffffffffffffffffffffffffffff16600260008b8152602001908152602001600020848154811061172c577f4e487b7100000000000000000000000000000000000000000000000000000000600052603260045260246000fd5b90600052602060002090600602016040518060c00160405290816000820160009054906101000a900473ffffffffffffffffffffffffffffffffffffffff1673ffffffffffffffffffffffffffffffffffffffff1673ffffffffffffffffffffffffffffffffffffffff1681526020016001820160009054906101000a900473ffffffffffffffffffffffffffffffffffffffff1673ffffffffffffffffffffffffffffffffffffffff1673ffffffffffffffffffffffffffffffffffffffff1681526020016002820180548060200260200160405190810160405280929190818152602001828054801561184057602002820191906000526020600020905b81548152602001906001019080831161182c575b5050505050815260200160038201548152602001600482018054806020026020016040519081016040528092919081815260200182805480156118a257602002820191906000526020600020905b81548152602001906001019080831161188e575b505050505081526020016005820180546118bb90613e92565b80601f01602080910402602001604051908101604052809291908181526020018280546118e790613e92565b80156119345780601f1061190957610100808354040283529160200191611934565b820191906000526020600020905b81548152906001019060200180831161191757829003601f168201915b505050505081525050612794565b808061194d90613ef5565b915050611685565b5080600280811115611990577f4e487b7100000000000000000000000000000000000000000000000000000000600052602160045260246000fd5b846000015173ffffffffffffffffffffffffffffffffffffffff167fe9870785ead1817fcb88e851fe89fb685126a4b1b26b8a14eb04c7bf8f5953c18986600001516040516119e0929190613c1f565b60405180910390a4505050505050565b6119f8612c64565b81611a036001612786565b8110611a44576040517f08c379a0000000000000000000000000000000000000000000000000000000008152600401611a3b90613b63565b60405180910390fd5b600460008481526020019081526020016000206040518060c0016040529081600082015481526020016001820154815260200160028201548152602001600382016040518060400160405290816000820160009054906101000a900473ffffffffffffffffffffffffffffffffffffffff1673ffffffffffffffffffffffffffffffffffffffff1673ffffffffffffffffffffffffffffffffffffffff1681526020016001820154815250508152602001600582016040518060400160405290816000820160009054906101000a900473ffffffffffffffffffffffffffffffffffffffff1673ffffffffffffffffffffffffffffffffffffffff1673ffffffffffffffffffffffffffffffffffffffff16815260200160018201548152505081526020016007820160009054906101000a900460ff166002811115611bb3577f4e487b7100000000000000000000000000000000000000000000000000000000600052602160045260246000fd5b6002811115611beb577f4e487b7100000000000000000000000000000000000000000000000000000000600052602160045260246000fd5b81525050915050919050565b60008060149054906101000a900460ff16905090565b611c15612934565b73ffffffffffffffffffffffffffffffffffffffff16611c33611c95565b73ffffffffffffffffffffffffffffffffffffffff1614611c89576040517f08c379a0000000000000000000000000000000000000000000000000000000008152600401611c8090613ba3565b60405180910390fd5b611c93600061293c565b565b60008060009054906101000a900473ffffffffffffffffffffffffffffffffffffffff16905090565b60007fbc197c819b3e337a6f9652dd10becd7eef83032af3b9d958d3d42f6694146621905098975050505050505050565b611cf7611bf7565b15611d37576040517f08c379a0000000000000000000000000000000000000000000000000000000008152600401611d2e90613b23565b60405180910390fd5b6000835114158015611d4b57506000825114155b611d8a576040517f08c379a0000000000000000000000000000000000000000000000000000000008152600401611d8190613b03565b60405180910390fd5b60005b8251811015611f8b577390b7cf88476cc99d295429d4c1bb1ff52448abee73ffffffffffffffffffffffffffffffffffffffff16838281518110611dfa577f4e487b7100000000000000000000000000000000000000000000000000000000600052603260045260246000fd5b60200260200101516020015173ffffffffffffffffffffffffffffffffffffffff161480611eab57507358874d2951524f7f851bbbe240f0c3cf0b992d7973ffffffffffffffffffffffffffffffffffffffff16838281518110611e87577f4e487b7100000000000000000000000000000000000000000000000000000000600052603260045260246000fd5b60200260200101516020015173ffffffffffffffffffffffffffffffffffffffff16145b80611f39575073edfdd7266667d48f3c9ab10194c3d325813d8c3973ffffffffffffffffffffffffffffffffffffffff16838281518110611f15577f4e487b7100000000000000000000000000000000000000000000000000000000600052603260045260246000fd5b60200260200101516020015173ffffffffffffffffffffffffffffffffffffffff16145b611f78576040517f08c379a0000000000000000000000000000000000000000000000000000000008152600401611f6f90613ae3565b60405180910390fd5b8080611f8390613ef5565b915050611d8d565b5060006040518060c00160405280611fa36001612786565b81526020014281526020016000815260200160405180604001604052803373ffffffffffffffffffffffffffffffffffffffff1681526020013373ffffffffffffffffffffffffffffffffffffffff1631815250815260200160405180604001604052808573ffffffffffffffffffffffffffffffffffffffff1681526020016000815250815260200160006002811115612067577f4e487b7100000000000000000000000000000000000000000000000000000000600052602160045260246000fd5b815250905080600460008360000151815260200190815260200160002060008201518160000155602082015181600101556040820151816002015560608201518160030160008201518160000160006101000a81548173ffffffffffffffffffffffffffffffffffffffff021916908373ffffffffffffffffffffffffffffffffffffffff16021790555060208201518160010155505060808201518160050160008201518160000160006101000a81548173ffffffffffffffffffffffffffffffffffffffff021916908373ffffffffffffffffffffffffffffffffffffffff16021790555060208201518160010155505060a08201518160070160006101000a81548160ff021916908360028111156121ab577f4e487b7100000000000000000000000000000000000000000000000000000000600052602160045260246000fd5b021790555090505060005b845181101561234457600260008360000151815260200190815260200160002085828151811061220f577f4e487b7100000000000000000000000000000000000000000000000000000000600052603260045260246000fd5b6020026020010151908060018154018082558091505060019003906000526020600020906006020160009091909190915060008201518160000160006101000a81548173ffffffffffffffffffffffffffffffffffffffff021916908373ffffffffffffffffffffffffffffffffffffffff16021790555060208201518160010160006101000a81548173ffffffffffffffffffffffffffffffffffffffff021916908373ffffffffffffffffffffffffffffffffffffffff16021790555060408201518160020190805190602001906122ea929190612cde565b50606082015181600301556080820151816004019080519060200190612311929190612cde565b5060a082015181600501908051906020019061232e929190612d2b565b505050808061233c90613ef5565b9150506121b6565b5060005b83518110156124d65760036000836000015181526020019081526020016000208482815181106123a1577f4e487b7100000000000000000000000000000000000000000000000000000000600052603260045260246000fd5b6020026020010151908060018154018082558091505060019003906000526020600020906006020160009091909190915060008201518160000160006101000a81548173ffffffffffffffffffffffffffffffffffffffff021916908373ffffffffffffffffffffffffffffffffffffffff16021790555060208201518160010160006101000a81548173ffffffffffffffffffffffffffffffffffffffff021916908373ffffffffffffffffffffffffffffffffffffffff160217905550604082015181600201908051906020019061247c929190612cde565b506060820151816003015560808201518160040190805190602001906124a3929190612cde565b5060a08201518160050190805190602001906124c0929190612d2b565b50505080806124ce90613ef5565b915050612348565b50600560003373ffffffffffffffffffffffffffffffffffffffff1673ffffffffffffffffffffffffffffffffffffffff1681526020019081526020016000208160000151908060018154018082558091505060019003906000526020600020016000909190919091505561254b6001612a00565b60005b84518110156125b5576125a23330878481518110612595577f4e487b7100000000000000000000000000000000000000000000000000000000600052603260045260246000fd5b6020026020010151612794565b80806125ad90613ef5565b91505061254e565b508060200151600060028111156125f5577f4e487b7100000000000000000000000000000000000000000000000000000000600052602160045260246000fd5b82606001516000015173ffffffffffffffffffffffffffffffffffffffff167fe9870785ead1817fcb88e851fe89fb685126a4b1b26b8a14eb04c7bf8f5953c18460000151856080015160000151604051612651929190613c1f565b60405180910390a450505050565b60007ff23a6e612e1ff4830e658fe43f4e3cb4a5f8170bd5d9e69fb5d7a7fa9e4fdf9790509695505050505050565b612696612934565b73ffffffffffffffffffffffffffffffffffffffff166126b4611c95565b73ffffffffffffffffffffffffffffffffffffffff161461270a576040517f08c379a000000000000000000000000000000000000000000000000000000000815260040161270190613ba3565b60405180910390fd5b600073ffffffffffffffffffffffffffffffffffffffff168173ffffffffffffffffffffffffffffffffffffffff16141561277a576040517f08c379a000000000000000000000000000000000000000000000000000000000815260040161277190613ac3565b60405180910390fd5b6127838161293c565b50565b600081600001549050919050565b7390b7cf88476cc99d295429d4c1bb1ff52448abee73ffffffffffffffffffffffffffffffffffffffff16816020015173ffffffffffffffffffffffffffffffffffffffff1614156127f9576127f4838383600001518460600151612a16565b61292f565b7358874d2951524f7f851bbbe240f0c3cf0b992d7973ffffffffffffffffffffffffffffffffffffffff16816020015173ffffffffffffffffffffffffffffffffffffffff1614156128c25760005b8160400151518110156128bc576128a9848484600001518560400151858151811061289c577f4e487b7100000000000000000000000000000000000000000000000000000000600052603260045260246000fd5b6020026020010151612b74565b80806128b490613ef5565b915050612848565b5061292e565b73edfdd7266667d48f3c9ab10194c3d325813d8c3973ffffffffffffffffffffffffffffffffffffffff16816020015173ffffffffffffffffffffffffffffffffffffffff16141561292d5761292c83838360000151846040015185608001518660a00151612be9565b5b5b5b505050565b600033905090565b60008060009054906101000a900473ffffffffffffffffffffffffffffffffffffffff169050816000806101000a81548173ffffffffffffffffffffffffffffffffffffffff021916908373ffffffffffffffffffffffffffffffffffffffff1602179055508173ffffffffffffffffffffffffffffffffffffffff168173ffffffffffffffffffffffffffffffffffffffff167f8be0079c531659141344cd1fd0a4f28419497f9722a3daafe3b4186f6b6457e060405160405180910390a35050565b6001816000016000828254019250508190555050565b8373ffffffffffffffffffffffffffffffffffffffff163073ffffffffffffffffffffffffffffffffffffffff161415612add578173ffffffffffffffffffffffffffffffffffffffff1663a9059cbb84836040518363ffffffff1660e01b8152600401612a85929190613a0b565b602060405180830381600087803b158015612a9f57600080fd5b505af1158015612ab3573d6000803e3d6000fd5b505050506040513d601f19601f82011682018060405250810190612ad791906133fe565b50612b6e565b8173ffffffffffffffffffffffffffffffffffffffff166323b872dd8585846040518463ffffffff1660e01b8152600401612b1a939291906139d4565b602060405180830381600087803b158015612b3457600080fd5b505af1158015612b48573d6000803e3d6000fd5b505050506040513d601f19601f82011682018060405250810190612b6c91906133fe565b505b50505050565b8173ffffffffffffffffffffffffffffffffffffffff166342842e0e8585846040518463ffffffff1660e01b8152600401612bb1939291906139d4565b600060405180830381600087803b158015612bcb57600080fd5b505af1158015612bdf573d6000803e3d6000fd5b5050505050505050565b8373ffffffffffffffffffffffffffffffffffffffff16632eb2c2d687878686866040518663ffffffff1660e01b8152600401612c2a95949392919061396c565b600060405180830381600087803b158015612c4457600080fd5b505af1158015612c58573d6000803e3d6000fd5b50505050505050505050565b6040518060c00160405280600081526020016000815260200160008152602001612c8c612db1565b8152602001612c99612db1565b815260200160006002811115612cd8577f4e487b7100000000000000000000000000000000000000000000000000000000600052602160045260246000fd5b81525090565b828054828255906000526020600020908101928215612d1a579160200282015b82811115612d19578251825591602001919060010190612cfe565b5b509050612d279190612de1565b5090565b828054612d3790613e92565b90600052602060002090601f016020900481019282612d595760008555612da0565b82601f10612d7257805160ff1916838001178555612da0565b82800160010185558215612da0579182015b82811115612d9f578251825591602001919060010190612d84565b5b509050612dad9190612de1565b5090565b6040518060400160405280600073ffffffffffffffffffffffffffffffffffffffff168152602001600081525090565b5b80821115612dfa576000816000905550600101612de2565b5090565b6000612e11612e0c84613c6d565b613c48565b90508083825260208201905082856020860282011115612e3057600080fd5b60005b85811015612e7a57813567ffffffffffffffff811115612e5257600080fd5b808601612e5f898261307f565b85526020850194506020840193505050600181019050612e33565b5050509392505050565b6000612e97612e9284613c99565b613c48565b90508083825260208201905082856020860282011115612eb657600080fd5b60005b85811015612ee65781612ecc8882613163565b845260208401935060208301925050600181019050612eb9565b5050509392505050565b6000612f03612efe84613cc5565b613c48565b905082815260208101848484011115612f1b57600080fd5b612f26848285613e50565b509392505050565b600081359050612f3d81614277565b92915050565b600082601f830112612f5457600080fd5b8135612f64848260208601612dfe565b91505092915050565b60008083601f840112612f7f57600080fd5b8235905067ffffffffffffffff811115612f9857600080fd5b602083019150836020820283011115612fb057600080fd5b9250929050565b600082601f830112612fc857600080fd5b8135612fd8848260208601612e84565b91505092915050565b600081519050612ff08161428e565b92915050565b600081359050613005816142a5565b92915050565b60008083601f84011261301d57600080fd5b8235905067ffffffffffffffff81111561303657600080fd5b60208301915083600182028301111561304e57600080fd5b9250929050565b600082601f83011261306657600080fd5b8135613076848260208601612ef0565b91505092915050565b600060c0828403121561309157600080fd5b61309b60c0613c48565b905060006130ab84828501612f2e565b60008301525060206130bf84828501612f2e565b602083015250604082013567ffffffffffffffff8111156130df57600080fd5b6130eb84828501612fb7565b60408301525060606130ff84828501613163565b606083015250608082013567ffffffffffffffff81111561311f57600080fd5b61312b84828501612fb7565b60808301525060a082013567ffffffffffffffff81111561314b57600080fd5b61315784828501613055565b60a08301525092915050565b600081359050613172816142bc565b92915050565b60006020828403121561318a57600080fd5b600061319884828501612f2e565b91505092915050565b60008060008060008060008060a0898b0312156131bd57600080fd5b60006131cb8b828c01612f2e565b98505060206131dc8b828c01612f2e565b975050604089013567ffffffffffffffff8111156131f957600080fd5b6132058b828c01612f6d565b9650965050606089013567ffffffffffffffff81111561322457600080fd5b6132308b828c01612f6d565b9450945050608089013567ffffffffffffffff81111561324f57600080fd5b61325b8b828c0161300b565b92509250509295985092959890939650565b60008060008060006080868803121561328557600080fd5b600061329388828901612f2e565b95505060206132a488828901612f2e565b94505060406132b588828901613163565b935050606086013567ffffffffffffffff8111156132d257600080fd5b6132de8882890161300b565b92509250509295509295909350565b60008060008060008060a0878903121561330657600080fd5b600061331489828a01612f2e565b965050602061332589828a01612f2e565b955050604061333689828a01613163565b945050606061334789828a01613163565b935050608087013567ffffffffffffffff81111561336457600080fd5b61337089828a0161300b565b92509250509295509295509295565b60008060006060848603121561339457600080fd5b600084013567ffffffffffffffff8111156133ae57600080fd5b6133ba86828701612f43565b935050602084013567ffffffffffffffff8111156133d757600080fd5b6133e386828701612f43565b92505060406133f486828701612f2e565b9150509250925092565b60006020828403121561341057600080fd5b600061341e84828501612fe1565b91505092915050565b60006020828403121561343957600080fd5b600061344784828501612ff6565b91505092915050565b60006020828403121561346257600080fd5b600061347084828501613163565b91505092915050565b6000613485838361389c565b905092915050565b60006134998383613933565b60208301905092915050565b6134ae81613db7565b82525050565b6134bd81613db7565b82525050565b60006134ce82613d16565b6134d88185613d51565b9350836020820285016134ea85613cf6565b8060005b8581101561352657848403895281516135078582613479565b945061351283613d37565b925060208a019950506001810190506134ee565b50829750879550505050505092915050565b600061354382613d21565b61354d8185613d62565b935061355883613d06565b8060005b83811015613589578151613570888261348d565b975061357b83613d44565b92505060018101905061355c565b5085935050505092915050565b60006135a182613d21565b6135ab8185613d73565b93506135b683613d06565b8060005b838110156135e75781516135ce888261348d565b97506135d983613d44565b9250506001810190506135ba565b5085935050505092915050565b6135fd81613dc9565b82525050565b61360c81613dd5565b82525050565b600061361d82613d2c565b6136278185613d84565b9350613637818560208601613e5f565b61364081613ffa565b840191505092915050565b600061365682613d2c565b6136608185613d95565b9350613670818560208601613e5f565b61367981613ffa565b840191505092915050565b61368d81613e3e565b82525050565b60006136a0602683613da6565b91506136ab8261400b565b604082019050919050565b60006136c3602583613da6565b91506136ce8261405a565b604082019050919050565b60006136e6602c83613da6565b91506136f1826140a9565b604082019050919050565b6000613709601083613da6565b9150613714826140f8565b602082019050919050565b600061372c601b83613da6565b915061373782614121565b602082019050919050565b600061374f601783613da6565b915061375a8261414a565b602082019050919050565b6000613772603e83613da6565b915061377d82614173565b604082019050919050565b6000613795602083613da6565b91506137a0826141c2565b602082019050919050565b60006137b8601283613da6565b91506137c3826141eb565b602082019050919050565b60006137db603183613da6565b91506137e682614214565b604082019050919050565b60408201600082015161380760008501826134a5565b50602082015161381a6020850182613933565b50505050565b610100820160008201516138376000850182613933565b50602082015161384a6020850182613933565b50604082015161385d6040850182613933565b50606082015161387060608501826137f1565b50608082015161388360a08501826137f1565b5060a082015161389660e0850182613684565b50505050565b600060c0830160008301516138b460008601826134a5565b5060208301516138c760208601826134a5565b50604083015184820360408601526138df8282613538565b91505060608301516138f46060860182613933565b506080830151848203608086015261390c8282613538565b91505060a083015184820360a08601526139268282613612565b9150508091505092915050565b61393c81613e34565b82525050565b61394b81613e34565b82525050565b600060208201905061396660008301846134b4565b92915050565b600060a08201905061398160008301886134b4565b61398e60208301876134b4565b81810360408301526139a08186613596565b905081810360608301526139b48185613596565b905081810360808301526139c8818461364b565b90509695505050505050565b60006060820190506139e960008301866134b4565b6139f660208301856134b4565b613a036040830184613942565b949350505050565b6000604082019050613a2060008301856134b4565b613a2d6020830184613942565b9392505050565b60006040820190508181036000830152613a4e81856134c3565b90508181036020830152613a6281846134c3565b90509392505050565b60006020820190508181036000830152613a858184613596565b905092915050565b6000602082019050613aa260008301846135f4565b92915050565b6000602082019050613abd6000830184613603565b92915050565b60006020820190508181036000830152613adc81613693565b9050919050565b60006020820190508181036000830152613afc816136b6565b9050919050565b60006020820190508181036000830152613b1c816136d9565b9050919050565b60006020820190508181036000830152613b3c816136fc565b9050919050565b60006020820190508181036000830152613b5c8161371f565b9050919050565b60006020820190508181036000830152613b7c81613742565b9050919050565b60006020820190508181036000830152613b9c81613765565b9050919050565b60006020820190508181036000830152613bbc81613788565b9050919050565b60006020820190508181036000830152613bdc816137ab565b9050919050565b60006020820190508181036000830152613bfc816137ce565b9050919050565b600061010082019050613c196000830184613820565b92915050565b6000604082019050613c346000830185613942565b613c4160208301846134b4565b9392505050565b6000613c52613c63565b9050613c5e8282613ec4565b919050565b6000604051905090565b600067ffffffffffffffff821115613c8857613c87613fcb565b5b602082029050602081019050919050565b600067ffffffffffffffff821115613cb457613cb3613fcb565b5b602082029050602081019050919050565b600067ffffffffffffffff821115613ce057613cdf613fcb565b5b613ce982613ffa565b9050602081019050919050565b6000819050602082019050919050565b6000819050602082019050919050565b600081519050919050565b600081519050919050565b600081519050919050565b6000602082019050919050565b6000602082019050919050565b600082825260208201905092915050565b600082825260208201905092915050565b600082825260208201905092915050565b600082825260208201905092915050565b600082825260208201905092915050565b600082825260208201905092915050565b6000613dc282613e14565b9050919050565b60008115159050919050565b60007fffffffff0000000000000000000000000000000000000000000000000000000082169050919050565b6000819050613e0f82614263565b919050565b600073ffffffffffffffffffffffffffffffffffffffff82169050919050565b6000819050919050565b6000613e4982613e01565b9050919050565b82818337600083830152505050565b60005b83811015613e7d578082015181840152602081019050613e62565b83811115613e8c576000848401525b50505050565b60006002820490506001821680613eaa57607f821691505b60208210811415613ebe57613ebd613f9c565b5b50919050565b613ecd82613ffa565b810181811067ffffffffffffffff82111715613eec57613eeb613fcb565b5b80604052505050565b6000613f0082613e34565b91507fffffffffffffffffffffffffffffffffffffffffffffffffffffffffffffffff821415613f3357613f32613f3e565b5b600182019050919050565b7f4e487b7100000000000000000000000000000000000000000000000000000000600052601160045260246000fd5b7f4e487b7100000000000000000000000000000000000000000000000000000000600052602160045260246000fd5b7f4e487b7100000000000000000000000000000000000000000000000000000000600052602260045260246000fd5b7f4e487b7100000000000000000000000000000000000000000000000000000000600052604160045260246000fd5b6000601f19601f8301169050919050565b7f4f776e61626c653a206e6577206f776e657220697320746865207a65726f206160008201527f6464726573730000000000000000000000000000000000000000000000000000602082015250565b7f496e76616c696420546f6b656e732073656c656374656420666f72207265747260008201527f696576616c000000000000000000000000000000000000000000000000000000602082015250565b7f596f75206861766520746f20656974686572207265747269657665206f72206f60008201527f66666572206120746f6b656e0000000000000000000000000000000000000000602082015250565b7f5061757361626c653a2070617573656400000000000000000000000000000000600082015250565b7f596f75206469646e277420637265617465207468697320737761700000000000600082015250565b7f496e76616c6964205377617049642070726f7669646564000000000000000000600082015250565b7f46756e6374696f6e2063616e206f6e6c792062652063616c6c6564206279207460008201527f6865207377617020726563697069656e74206f7220696e69746961746f720000602082015250565b7f4f776e61626c653a2063616c6c6572206973206e6f7420746865206f776e6572600082015250565b7f496e76616c696420537761702053746174650000000000000000000000000000600082015250565b7f46756e6374696f6e2063616e206f6e6c792062652063616c6c6564206279207460008201527f6865207377617020726563697069656e74000000000000000000000000000000602082015250565b6003811061427457614273613f6d565b5b50565b61428081613db7565b811461428b57600080fd5b50565b61429781613dc9565b81146142a257600080fd5b50565b6142ae81613dd5565b81146142b957600080fd5b50565b6142c581613e34565b81146142d057600080fd5b5056fea2646970667358221220642485f3a2f56caa043e3dc220d2cc599ac353ffcaf90e4cc8f8df637bdc971064736f6c63430008040033",
  "linkReferences": {},
  "deployedLinkReferences": {}
}